:020000040800F2
:10000000E0070020290200087D0A00084D070008CB
:10001000790A000833050008D91300080000000021
:10002000000000000000000000000000710B00084C
:1000300029060008000000000D0B0008310D000823
:10004000430200084302000843020008430200087C
:10005000430200084302000843020008430200086C
:10006000430200084302000843020008430200085C
:10007000430200084302000843020008430200084C
:10008000430200084302000843020008430200083C
:10009000430200084302000843020008430200082C
:1000A00043020008C10E0008430200084302000892
:1000B000430200084302000843020008430200080C
:1000C00043020008430200084302000843020008FC
:1000D00043020008430200084302000843020008EC
:1000E00043020008430200084302000843020008DC
:1000F00043020008430200084302000843020008CC
:100100004302000843020008010F000843020008F0
:100110004302000843020008410F0008A50F000831
:10012000430200084302000843020008430200089B
:10013000430200084302000843020008430200088B
:10014000430200084302000843020008430200087B
:10015000430200084302000843020008430200086B
:10016000430200084302000843020008430200085B
:10017000430200084302000843020008430200084B
:10018000430200084302000800F002F800F03CF8C7
:100190000AA090E8000C82448344AAF10107DA45E2
:1001A00001D100F031F8AFF2090EBAE80F0013F0F8
:1001B000010F18BFFB1A43F00103184774650000D4
:1001C00094650000103A24BF78C878C1FAD8520765
:1001D00024BF30C830C144BF04680C6070470000C1
:1001E0000023002400250026103A28BF78C1FBD840
:1001F000520728BF30C148BF0B6070471FB505F0DC
:10020000E8FA1FBD10B510BD00F05EF91146FFF70A
:10021000F5FF03F02BFB00F07CF903B4FFF7F2FFCE
:1002200003BC00F07FF900000948804709480047F7
:10023000FEE7FEE7FEE7FEE7FEE7FEE7FEE7FEE796
:10024000FEE7FEE704480549054A064B70470000F3
:10025000350D000889010008E0010020E0070020BA
:10026000E0030020E003002010B54C1084EA5304A2
:1002700004D54042C1F1000138BF491E1B4204D5DC
:100280005242C3F1000338BF5B1E00F048F814F07F
:10029000804F04D04042C1F1000138BF491E14F024
:1002A000004F04D05242C3F1000338BF5B1E10BDA3
:1002B00040EA010310B59B070FD1042A0DD310C8E3
:1002C00008C9121F9C42F8D020BA19BA884201D935
:1002D000012010BD4FF0FF3010BD1AB1D30703D07D
:1002E000521C07E0002010BD10F8013B11F8014B33
:1002F0001B1B07D110F8013B11F8014B1B1B01D14F
:10030000921EF1D1184610BD02F0FF0343EA03220A
:1003100042EA024200F087B870477047704753EADC
:10032000020C00F069802DE9F04B4FF00006002B25
:100330001FBFB3FA83F503FA05F424FA05F65E400D
:1003400012BF1643B2FA82F502FA05F4C5F1200590
:100350001EBF22FA05FC44EA0C04203556EA044C80
:100360004FEA144418BF641C4FF000084FF0000916
:10037000904271EB030C39D3002919BFB1FA81F710
:1003800001FA07F6B0FA80F700FA07F6C7F120077E
:100390001EBF20FA07FC46EA0C062037B6FBF4FC29
:1003A000A7EB0507103F07F01F0BCBF120060CFA57
:1003B0000BFB2CFA06F644BFB3460026202FA4BF41
:1003C0005E464FF0000B5BEA060C08BF4FF0010BD6
:1003D00019EB0B09ABFB027C48EB0608C01B06FBC4
:1003E00002CC0BFB03CC71EB0C01C1E70B460246C0
:1003F00041464846BDE8F08B13B54FF000004FF082
:100400000001AFF30080BDE81C40704710B500F05C
:100410002BF8006810BD10B5044600F025F8046004
:1004200010BD4FF000020429C0F0128010F0030C40
:1004300000F02080CCF1040CBCF1020F18BF00F8D2
:10044000012BA8BF20F8022BA1EB0C0100F012B881
:100450005FEAC17C24BF00F8012B00F8012B48BFE4
:1004600000F8012B70470000004870477C01002015
:100470004FF0000200B5134694469646203922BF3D
:10048000A0E80C50A0E80C50B1F12001BFF4F7AF88
:10049000090728BFA0E80C5048BF0CC05DF804EB6A
:1004A000890028BF40F8042B08BF704748BF20F8D8
:1004B000022B11F0804F18BF00F8012B704700008D
:1004C000004870477C0100207546FFF7F9FFAE46F3
:1004D00005006946534620F00700854618B020B550
:1004E000FFF7B0FEBDE820404FF000064FF00007D8
:1004F0004FF000084FF0000B21F00701AC46ACE8CC
:10050000C009ACE8C009ACE8C009ACE8C0098D4638
:10051000704710B50446AFF300802046BDE8104098
:10052000FFF77BBE01491820ABBEFEE726000200A4
:10053000704700BFFEE7000000B500F083F80346F7
:1005400016480088181A02B2B2F5004F02DB501CA0
:1005500002B206E012F5004F03DC4FF6FF701044C4
:1005600002B20F48006810440D4908600B48038030
:1005700000EE102AF8EEC00A9FED0A1A80EE810AFA
:10058000DFED090A20EE200AF3EE0E0A80EE201AB3
:10059000064880ED001A90ED000A00BD40000020E2
:1005A0003C0000200000FA44FF5FEA4644000020BF
:1005B00000B500F04DF8034616480088181A02B23C
:1005C000B2F5004F02DB501C02B206E012F5004FFC
:1005D00003DC4FF6FF70104402B20F48006810446D
:1005E0000D4908600B48038000EE102AF8EEC00A9F
:1005F0009FED0A1A80EE810ADFED090A20EE200A3B
:10060000F3EE0E0A80EE201A064880ED001A90EDF7
:10061000000A00BD500000204C0000200000FA44F9
:10062000FF5FEA46480000207047000000200149B3
:10063000486270470000014000200149086070478F
:10064000240C00400149496A08B27047000001408B
:100650000149096808B27047240C0040F0B50A4609
:1006600000210023002400BF3DE0012505FA01F32D
:10067000156805EA03049C4234D105684F0003263F
:10068000BE40B543056015794E00B5400668354358
:1006900005601579012D02D01579022D16D18568D6
:1006A0004F000326BE40B543856055794E00B540E6
:1006B000866835438560456801268E40B5434560B0
:1006C000456896798E40B6B235434560C5684F009F
:1006D0000326BE40B543C560D5794E00B540C66817
:1006E0003543C560491C1029BFD3F0BDF0B50023C8
:1006F00000244D07ED0E02FA05F3CE1000F120059F
:1007000055F826504E07F70E0F26BE40B543CF10C2
:1007100000F1200646F82750CE1000F1200555F8CC
:10072000265045EA0304CE1000F1200545F8264086
:10073000F0BD0246002013690B400BB1012000E020
:1007400000207047418370470183704700BFFEE778
:1007500080ED000AC0ED010A80ED021ADFED0C1AEF
:10076000C0ED031ADFED0A1AC0ED041ADFED081A16
:10077000C0ED051ADFED061AC0ED061ADFED041A0A
:10078000C0ED071ADFED021AC0ED081A704700002D
:100790000000000008B50020009001226946752085
:1007A00003F001F99DF80000702801D0002008BD79
:1007B0000120FCE770B52DED0C8B8EB004460D4684
:1007C0001646B7EE000AF0EE409A9FED7B0AB0EEB7
:1007D000408A9FED790AF0EE408A9FED770AB0EEED
:1007E000409A03A804A905AB06AACDE900100AA9FE
:1007F0000CA801F0EBFD28B14FF0FF300EB0BDECBE
:100800000C8B70BDBDF8100000F4807000287CD007
:100810009DED060AB8EEC00ADFED680A80EE201AE8
:10082000F0EE419A9DED070AB8EEC00ADFED630ACB
:1008300080EE201AB0EE418A9DED080AB8EEC00A9B
:10084000DFED5E0A80EE201AF0EE418A9DED090A86
:10085000B8EEC00ADFED590A80EE201AB0EE419AD8
:10086000B8EE000A28EE000A20EE090AF0EE000AAF
:1008700069EEA00A00EEA80A10EE101A084604F06D
:1008800037FF41EC1C0BB0EE4C0AF0EE6C0A00F0A6
:10089000BFFDB0EE40BAF0EE60BA9FED490B53ECED
:1008A000102B51EC1B0B04F063FC41EC1A0B04F011
:1008B000E5F92060B8EE000A28EE000A20EE080AEA
:1008C000F0EE000A68EEA00A00EEE80AF7EE000A71
:1008D00030EE200A10EE101A084604F009FF41EC31
:1008E0001C0BB0EE000A28EE800A20EE090AF0EE9A
:1008F000000A69EEA00A00EE880A10EE101A0846F7
:1009000004F0F6FE41EC1D0B00E053E0B0EE4C1A93
:10091000F0EE6C1AB0EE4D0AF0EE6D0A01F094F8AC
:10092000B0EE40BAF0EE60BA9FED250B53EC102B01
:1009300051EC1B0B04F01CFC41EC1A0B04F09EF96B
:10094000286029EEA90A08EE080A08EEE80A09EE6E
:10095000490A10EE101A084604F0CAFE41EC1C0BBE
:1009600029EE890A08EE280AF0EE000A20EE200A95
:1009700010EE101A084604F0BBFE41EC1D0BB0EE61
:100980004C1AF0EE6C1AB0EE4D0AF0EE6D0A01F062
:100990005BF8B0EE40BAF0EE60BA9FED090B53EC95
:1009A000102B51EC1B0B04F0E3FB41EC1A0B04F091
:1009B00065F93060002021E7000000000000804E53
:1009C0006666666666A64C4038B5684603F062F90E
:1009D000044614B14FF0FF3038BD782003F042FFD9
:1009E000044614B16FF00100F6E7782003F038F800
:1009F000044614B16FF00200EEE7642003F0E4FE59
:100A0000044614B16FF00300E6E701F0D3FC04469E
:100A100014B16FF00400DFE7164802F0EBFE054664
:100A200001F024FF044614B16FF00500D4E740F252
:100A3000731001F067FB044614B16FF00600CBE7BA
:100A4000642001F043FE044614B16FF00700C3E7D1
:100A500003F0D8FF044614B16FF00800BCE7012092
:100A600003F0AEFD044614B16FF00900B4E70020B6
:100A7000B2E70000DC00002000BFFEE77047000086
:100A800070B5002100230F22C4781CB3174C2468D2
:100A900004F4E064C4F5E064C4F30721C1F1040484
:100AA000E3B20A4144789C40E1B284781440214387
:100AB0000C07210E0E4C05786155047804F01F05D3
:100AC0000124AC4005786D11AD0005F1E025C5F8B5
:100AD000004109E0047804F01F050124AC40054DF5
:100AE0000678761145F8264070BD00000CED00E058
:100AF00000E400E080E100E002490143024A1160A5
:100B0000704700000000FA050CED00E0704700009F
:100B100029B1064A12680243044B1A6004E0034AF2
:100B200012688243014B1A6070470000303802405F
:100B300029B1064A12680243044B1A6004E0034AD2
:100B400012688243014B1A6070470000403802402F
:100B500029B1064A12680243044B1A6004E0034AB2
:100B600012688243014B1A6070470000443802400B
:100B700070472DE9F04105460F4614461E4602F027
:100B8000DFFD002141EA4501C8B202F0A5FD02F0F7
:100B90000DFE20B102F0F4FD0120BDE8F0813846E1
:100BA00002F09AFD02F002FE02F0CAFD012101EB03
:100BB0004501C8B202F090FD02F0F8FD0CE002F031
:100BC00067FD3070012C02D102F048FD01E002F017
:100BD00025FD601EC4B2761C002CF0D102F0D0FDC1
:100BE0000020DAE72DE9F04105460E461746984603
:100BF00002F0A6FD002141EA4501C8B202F06CFDF9
:100C000002F0D4FD20B102F0BBFD0120BDE8F0816F
:100C1000304602F061FD02F0C9FD00240CE018F836
:100C2000040002F059FD02F0C1FD18B102F0A8FD68
:100C30000120EBE7601CC4B2BC42F0DB02F0A0FD77
:100C40000020E3E70CB500200190009034480068D4
:100C500040F480303249086000BF3148006800F439
:100C6000003000900198401C0190009818B901983C
:100C7000B0F5A04FF1D12A48006800F4003010B15F
:100C80000120009001E0002000900098012846D14A
:100C900023484030006840F08050214940310860CE
:100CA0002048006840F440401E4908601C48083055
:100CB00000681B49083108600846006840F400409D
:100CC00008600846006840F4A05008601648091FF4
:100CD0000860081F006840F08070091F086000BFAE
:100CE0000F48006800F000700028F9D040F205704D
:100CF0000E4908600A480830006820F003000849DF
:100D0000083108600846006840F00200086000BF33
:100D100003480830006800F00C000828F8D10CBD2A
:100D2000003802400070004008544007003C024078
:100D30007047000010B51548006840F47000134972
:100D400008601348006840F0010011490860002065
:100D50000F49083108600E4800680E4908400C49E8
:100D600008600D48091D0860081F006820F48020F5
:100D7000091F0860002006490C310860FFF762FF78
:100D80004FF0006001498039086010BD88ED00E037
:100D900000380240FFFFF6FE10300024F0B50C468C
:100DA000154600210022068C4FF6FE773E40068451
:100DB000018B028C4FF60C7631407E1C06EA03163E
:100DC0002E4331434FF6F576324044F0010632436C
:100DD00001830284F0BDF0B50C46154600210022C7
:100DE0000026078C4FF6EF7C07EA0C070784018B7F
:100DF000028C4FF6FF7707EA041640F6FF473940AA
:100E00004FF6FF7707EA033739434FF6FF7707EAD4
:100E1000052739434FF65F773A4046F010073A43CB
:100E200001830284F0BDF0B50C4615460021002276
:100E30000026078C4FF6FF6C07EA0C070784818BAE
:100E4000028C4FF6FF7707EA04264FF60C773940FD
:100E50004FF6FF7707EA03172F4339434FF2FF5747
:100E60003A4046F480773A4381830284F0BDF0B57E
:100E70000C461546002100220026078C4EF6FF7C0A
:100E800007EA0C070784818B028C4FF6FF7707EA8D
:100E9000043640F6FF4739404FF6FF7707EA05274B
:100EA00039434FF6FF7707EA0337394345F6FF77B3
:100EB0003A4046F480573A4381830284F0BD0000F3
:100EC00010B501210C4800F020F998B10A480088BB
:100ED00000F0100028B109480068401E074908606A
:100EE00004E006480068401C0449086001210248EB
:100EF00000F0CCF810BD000000000140A000002070
:100F000010B501210C4800F000F998B10A4800889A
:100F100000F0100028B109480068401E0749086029
:100F200004E006480068401C0449086001210248AA
:100F300000F0ACF810BD0000000C0040A400002040
:100F400010B50121124800F0E0F801281ED1114827
:100F50000088002804DD0F480088401E0D490880E5
:100F60000D480068401C0C490860084600680B49A1
:100F7000884207D100200849086009480068401CE1
:100F8000074908600121024800F080F810BD000008
:100F900000100040920000209800002040420F0006
:100FA0009C00002010B50121284800F0AEF801286F
:100FB00046D127480088401C2549088008460088FB
:100FC000B0F57A7F04D10020088001202149087003
:100FD00021480088401C2049088008460088C8280D
:100FE00008D10020088001201C490870FFF7A4FAEE
:100FF000FFF7DEFA1A480088401C194908800846A5
:10100000008864280AD1002008801648008800283B
:1010100004DD14480088401E124908801248006808
:10102000401C11490860084600681049884207D1F1
:1010300000200D4908600E480088401C0C490880BB
:101040000121024800F022F810BD00000014004009
:10105000AA000020AD000020A8000020AC00002065
:1010600094000020900000208C0000209F8601004A
:101070008800002021B1028842F08002028004E052
:1010800002884FF67F731A4002807047CA4302827B
:10109000704721B1028842F00102028004E0028818
:1010A0004FF6FE731A400280704731B1B0F8442009
:1010B00042F40042A0F8442005E0B0F84420C2F316
:1010C0000E02A0F844207047F0B50C4615461E46A7
:1010D0000021002200230189028B038C4FF6F87750
:1010E000394021434FF6FC473A4040F201173A435A
:1010F0004FF6DD773B404FF6FF7707EA06172F43A1
:101100003B43018102830384F0BD30B502460020D9
:1011100000230024158A05EA0103958905EA0104E4
:1011200013B10CB1012000E0002030BD70B50546C0
:101130000C46208850B92389A28861882846FFF789
:101140002DFEE188284600F0D8F825E02088042804
:101150000AD12389A28861882846FFF73CFEE188EE
:10116000284600F0D3F817E0208808280AD1238900
:10117000A28861882846FFF756FEE188284600F0DD
:10118000D2F809E02389A28861882846FFF76FFE1C
:10119000E188284600F0D0F870BD1AB183890B436E
:1011A000838102E083898B438381704770B500247B
:1011B00000220023058C4FF6FE7635400584028C14
:1011C0008388048B4FF68F752C40B51E2C400D88FC
:1011D0002C43751E2A408D892A434D882A43104D81
:1011E000A84202D00F4DA84213D14FF6F7752A40FE
:1011F000CD892A434FF6FB752A408D882A434FF646
:10120000FF652B404FF6FF552B400D8A2B434D8A2F
:101210002B43838004838D684563028470BD000086
:1012200000000140000401400A460021018B4FF6F6
:10123000F7731940114301837047000070B5002413
:1012400000220023058C4FF6EF7635400584028C92
:101250008388048B48F6FF752C404FF6FF452C40E1
:101260000D884FF6FF7606EA05252C434FF6DF750D
:101270002A408D8906EA05152A434D8806EA051598
:101280002A43154DA84202D0144DA8421DD14FF655
:101290007F752A40CD894FF6FF7606EA05152A4369
:1012A0004FF6BF752A408D8806EA05152A434FF68A
:1012B000FF352B404FF2FF752B400D8A06EA85055E
:1012C0002B434D8A06EA85052B43838004838D6872
:1012D0008563028470BD00000000014000040140ED
:1012E0000A460021018B4FF2FF7319404FF6FF733E
:1012F00003EA0223194301837047028B4FF6F3730D
:101300001A400283028B0A4302837047028B4FF21A
:10131000FF331A400283028B4FF6FF7303EA012367
:101320001A4302837047828B4FF6F3731A4082830D
:10133000828B0A4382837047828B4FF2FF331A40BD
:101340008283828B4FF6FF7303EA01231A43828361
:101350007047000000220288184B98420ED0184BAC
:1013600098420BD0B0F1804F08D0164B984205D070
:10137000154B984202D0154B984204D14FF68F730B
:101380001A404B881A43124B984207D0114B98428F
:1013900004D04FF6FF431A400B891A4302804B6872
:1013A000C3620B880385054B984202D0044B9842D8
:1013B00001D18B7A038601238382704700000140AC
:1013C000000401400004004000080040000C004000
:1013D000001000400014004000BFFEE703B4019875
:1013E0004100009850EAC12018BF04204A0D18BFE0
:1013F00040F0010040F2FF72B2EB515F08BF40F0D5
:101400000200012808BF052002B07047000000005C
:1014100070B5C1482DED020B2DED0E8B82B0119DE4
:1014200025F000449FEDBEDB9FEDBFEB84423EDB29
:10143000A4F140511098A1F17F6108430FD0BC483E
:10144000844202DC28D1109830B39DED100B02B01D
:10145000BDEC0E8B02B0BDE8704000F071BC9DED9C
:10146000100B53EC1D2B51EC100B03F081FE9DED86
:10147000100B41EC180B53EC1E2B51EC100B03F02E
:1014800077FE53EC182B03F02BFC41EC100B02B051
:10149000BDEC0E8B02B070BD0120FEF7BCFF02B0A8
:1014A000BDEC0E8B02B0BDE8704000F05DBCA14801
:1014B0009FEDA18B844256DA9DED100BB4F1795F5C
:1014C0000ADA51EC100BFFF789FF042808BF00F07F
:1014D0005BFC9DED100BDAE753EC102B51EC100B7D
:1014E00003F046FE41EC190B95480621B0EE490A7F
:1014F000F0EE690A784400F0A7FB53EC192B51EC8D
:10150000100B03F035FE41EC1A0B8E48B0EE490A81
:10151000F0EE690A0421784400F096FB53EC192B95
:1015200051EC100B03F024FE53EC182B03F0D8FB06
:1015300041EC100B51EC1A0B53EC102B03F084FC14
:10154000CDE900019DED000B53EC102B9DED100B30
:1015500051EC100B03F00CFE9DED101B53EC112B06
:1015600003F0BEFBD2E09DED100B51EC100B01F02F
:1015700015FC53EC182B03F0F9FE9FED730BCDE92E
:10158000000153EC102B9DED000B51EC100B03F000
:10159000EFFD41EC190B6E480621B0EE490AF0EE62
:1015A000690A784400F050FB53EC192B51EC100BF6
:1015B00003F0DEFD41EC1B0B6648B0EE490AF0EE8D
:1015C000690A0421784400F03FFB53EC192B51ECDD
:1015D000100B03F0CDFD53EC182B03F081FB41EC15
:1015E0001C0B51EC190B03F0ADFA41EC180B5A48E7
:1015F0009FED5BABA04222DC53EC1C2B51EC1B0B90
:1016000003F022FCCDE900019DED000B51EC180B1D
:1016100053EC102B03F0ACFD53EC182B03F060FBE4
:1016200053EC1A2B03F0A4FD53EC1D2B03F076FFB3
:1016300053EC1E2B03F09AFE41EC100B5FE08DED96
:10164000008B002000909DED000B51EC180B53EC2B
:10165000102B03F045FB9DED000B41EC1E0B53ECF2
:10166000102B51EC100B03F083FD53EC192B03F0FE
:101670007DFE53EC1E2B03F0E7FB41EC190B53EC02
:101680001C2B51EC1B0B03F0DFFB41EC1B0B53EC51
:101690001A2B51EC190B03F06BFD53EC1D2B03F0CF
:1016A00065FE41EC190B53EC1A2B51EC180B03F0AF
:1016B0005FFD53EC1B2B03F05BFD53EC192B03F088
:1016C0002DFF9DED000B41EC180B53EC1A2B51EC48
:1016D000100B03F04DFD9FED249B53EC192B03F0F1
:1016E00045FE41EC100B51EC180B53EC102B03F0A2
:1016F00015FF53EC192B03F039FE41EC100B002DB4
:101700003FF7C5AE51EC100B03F0ACFA41EC100BF7
:10171000BDE60000000000000000F03F00000000F7
:10172000075C143326A6913C182D4454FB21F93F45
:101730000000F07F0000E03F000000000000F03FEC
:101740004851000056510000000000000000E03F3A
:101750009A500000A85000003333EF3F0000000013
:101760000000000000000040182D4454FB21E93F18
:1017700070B59B482DED020B2DED068B079D25F0D6
:101780000044A04218DC9748844202DC0AD1069843
:1017900040B19DED060BBDEC068B02B0BDE870407C
:1017A00000F0CEBA002DCCBF9FED8F0B9FED900BBC
:1017B000BDEC068B02B070BD8F48A04215DD8F488E
:1017C000A042D8BF4FF0FF3458DD9DED060B51EC21
:1017D000100BFFF703FE042808BF00F0D5FA9DEDBB
:1017E000060BBDEC068B02B070BD9DED060B51ECF7
:1017F000100B01F0D3FACDE9060181489FED828BF1
:10180000A0423CDD8248A0421FDD00249FED82AB58
:101810009DED060B53EC1A2B51EC100B03F060FA04
:101820009DED060B41EC190B53EC1A2B51EC100BF0
:1018300003F09EFC53EC182B03F070FE53EC192BB5
:1018400003F002FBCDE9060149E09DED060B012402
:1018500053EC182B51EC100B03F042FA9DED060BE4
:1018600041EC190B53EC182B51EC100B03F056FE06
:1018700053EC192B03F0E8FACDE906012FE0684894
:10188000A0421FDD02249FED689B9DED060B53ECEB
:10189000192B51EC100B03F06BFC53EC182B03F0DD
:1018A0001FFA9DED060B41EC180B53EC192B51EC74
:1018B000100B03F033FE53EC182B03F0C5FACDE9FF
:1018C00006010CE09DED060B032453EC102B9FED5D
:1018D000580B51EC100B03F0B7FACDE906019DED62
:1018E000060B53EC102B51EC100B03F041FC41ECB8
:1018F000180B53EC182B03F03BFC41EC190B4E4832
:101900000621B0EE490AF0EE690A784400F09CF92D
:1019100053EC182B51EC100B03F02AFC41EC180B84
:101920004648B0EE490AF0EE690A0521784400F015
:101930008BF953EC192B51EC100B03F019FC41EC13
:10194000100B51EC180B53EC102B002C0EDA03F09B
:10195000C7F99DED061B53EC112B03F009FC9DED1F
:10196000061B53EC112B03F001FD35E003F0B8F931
:101970009DED061B53EC112B03F0FAFB41EC100B11
:101980002F48784400EBC40090ED001B51EC100B85
:1019900053EC112B03F0C2FD9DED061B53EC112BF4
:1019A00003F0BCFD41EC100B2648784400EBC4006A
:1019B00090ED001B51EC100B53EC112B03F0D6FCF7
:1019C00041EC100B002DA2BFBDEC068B02B070BD28
:1019D00051EC100B03F046F941EC100B01E700004D
:1019E000000010440000F07F182D4454FB21F93F03
:1019F000182D4454FB21F9BF0000DC3F0000203EBD
:101A00000000F33F00000000000000000000F03F75
:101A10000000E63F00000000000000000000004061
:101A20000080034000000000000000000000F83FBC
:101A3000000000000000F0BFEA4D0000A04D0000D3
:101A40002A4D0000E24C000070B56F4E2DED040BE6
:101A50002DED048B82B0DDF824C0DDE907235C4264
:101A60002CF000411C4341EAD474069D22F0004052
:101A7000B44205D86C422C4340EAD474B4420BD92A
:101A80009DED081B9DED060B02B0BDEC048B04B070
:101A9000BDE8704000F05EB9ACF14054A4F17F6441
:101AA0001C430BD0022404EAAC7444EAD27405430C
:101AB0009FED578B9FED582B07D015E09DED060B42
:101AC00051EC100B00F092FA42E0002C11BF012CF7
:101AD0009DED060B02B0BDEC048B04BF04B070BDDD
:101AE000022C38D0032C3BD00B439FED4D1B9FEDB8
:101AF0004E0B0AD0B14218D1B04209D121F0804139
:101B000020F08040099107900FE0002A15DA10E0DC
:101B1000474B7B44002C08BF93ED000B0DD0012CEC
:101B200010D0022C17D0032C1AD0B0421DD1002A9D
:101B300003DAB0EE410AF0EE610A02B0BDEC048BAC
:101B400004B070BD93ED000B51EC100B03F08AF85C
:101B500041EC100BF1E7B0EE480AF0EE680AECE752
:101B6000B0EE420AF0EE620AE7E7401A00159FED78
:101B7000329B3C28C8BF8DED000B17DCBCF1000F79
:101B8000BCBF10F13C0F8DED009B0FDB9DED080BF2
:101B900053EC102B9DED060B51EC100B03F054F998
:101BA00001F0FCF800F022FACDE90001B4B1012CFB
:101BB00010D0022C9FED220B53EC102B9DED000B4F
:101BC00051EC100B19D003F0A9FC53EC182B03F0C7
:101BD000A5FCBDE7019880F0004001909DED000B51
:101BE00053EC192B51EC100B03F086FA04BF0220C2
:101BF000FEF711FC9DED000B9FE703F08FFC53EC0B
:101C0000182B03F0B3FBA3E70000F07F00000000F7
:101C1000182D4454FB210940182D4454FB2109C0C0
:101C2000182D4454FB21F9BF182D4454FB21F93FD2
:101C3000124C000000000000000000000000000046
:101C4000075C143326A6A13C70B504462DED028B2B
:101C50004D1E00EBC500B0EE408AF0EE608A90EDBC
:101C6000000B35F0060017D053EC182B51EC100B7D
:101C700003F07EFA41EC100B6D1E04EBC50090EDF5
:101C8000001B51EC100B53EC112B03F029F841EC25
:101C9000100B35F00600E7D1022D36D0042D1CD0F4
:101CA000062D1CBFBDEC028B70BD53EC182B51EC04
:101CB000100B03F05DFA94ED0A1B53EC112B03F0AB
:101CC0000FF853EC182B03F053FA94ED081B53EC68
:101CD000112B03F005F841EC100B53EC182B51ECD1
:101CE000100B03F045FA94ED061B53EC112B02F098
:101CF000F7FF53EC182B03F03BFA94ED040B53EC75
:101D0000102B02F0EDFF41EC100B53EC182B51ECB3
:101D1000100B03F02DFA94ED021B53EC112B02F083
:101D2000DFFF53EC182B03F023FA94ED001B53EC68
:101D3000112B02F0D5FFBDEC028B41EC100B70BDF6
:101D400010B553EC102B51EC100B02F0C9FF41EC15
:101D5000100B10BD10B553EC112B51EC100B02F011
:101D6000BFFF41EC100B10BD9FED050B10B553EC00
:101D7000102B51EC100B03F067F841EC100B10BD69
:101D800000000000000000009FED050B10B553ECB3
:101D9000102B51EC100B03F0EBF941EC100B10BDC4
:101DA00000000000000000102DE9F0432DED048B31
:101DB0008BB00746884615460026B14686494968D5
:101DC000087801AB03220D21FEF7D3FE40B10DB11F
:101DD00000BF00BF07200BB0BDEC048BBDE8F08353
:101DE0000DB100BF00BF00243CE001A8005D70B34E
:101DF00001A8005D401E794931F8100000EE100A7C
:101E0000B8EE400A02A800EB840080ED000A02A8A8
:101E100000EB840090ED000ADFED710A20EE200A4D
:101E200002A800EB840080ED000A02A800EB840009
:101E3000D0ED000A6B4890ED010AB8EE400A80EE42
:101E4000801A02A800EB840080ED001A09E0FFE789
:101E50009FED650A02A800EB840080ED000A4FF0B8
:101E60000109641C032CC0DB4FF00109B9F1000F1C
:101E700048D10DB100BF00BF002440E058F8240055
:101E800057F82410401A00EE100AB8EEC00A08A84D
:101E900000EB840080ED000A1DB100BF00BF00BF51
:101EA00000BF08A800EB8400D0ED000A02A800EBF8
:101EB000840090ED001A80EE810AF7EE000A30EE01
:101EC000600A05A800EB840080ED000A0DB100BF98
:101ED00000BF05A800EB840090ED000AB0EEC00A38
:101EE0004048D0ED090AB4EEE00AF1EE10FA05DD43
:101EF0000DB100BF00BF0120A0400643641C032CAD
:101F0000BCDB43E0374890ED070ADFED350A20EEF1
:101F1000208A90ED080ADFED320A60EE208A2DB1AA
:101F200000BF00BF00BF00BF00BF00BF00242BE008
:101F300058F8240057F82410401A00EE100AB8EEA2
:101F4000C00A08A800EB840080ED000A0DB100BFB4
:101F500000BF08A800EB840090ED000AB4EEC80AA8
:101F6000F1EE10FA09D308A800EB840090ED000A06
:101F7000B4EEE80AF1EE10FA05DD0DB100BF00BFC6
:101F80000120A0400643641C032CD1DB0EBB154886
:101F900090ED0A0ADFED120A20EE209A0DB100BF83
:101FA00000BF002413E057F8240000EE100AB8EE3A
:101FB000C00AB0EEC00AB4EEC90AF1EE10FA05DDAF
:101FC0000DB100BF00BF0120A0400643641C032CDC
:101FD000E9DB3046FFE60000B0000020445800086E
:101FE00000008047145800080000000010B541ECC4
:101FF000100BFFF7BDFB51EC100B10BD10B502F03C
:10200000DAFC01F051F902F001FE02F0D3FD00F01C
:1020100047FEFEF711FBFEF709FB01F071FC01F032
:10202000A7FCFEF7B7FB012802D10349087002E0C4
:1020300000200149087010BD090000202DE9F04181
:102040000446E07800F0C006E07800F03F056078D4
:1020500000F0010098B1EF102846E91705EB517127
:10206000C910A5EBC101491C01F0FF080B4800682D
:1020700020B10A48414602683846904700BF607860
:1020800000F0080030B10548406818B1B011034AAB
:10209000516888470020BDE8F0810000540100200D
:1020A0000349088000BF024909880029FBDC70470A
:1020B000900000200349088000BF024909880029D8
:1020C000FBDC70479200002038B5044664B1202044
:1020D0008DF8000028208DF8010030208DF80200D6
:1020E00038208DF8030004E0A32204216846FEF79F
:1020F0000BF96A46042140F69E2002F01BFC01F019
:10210000E7FF38BD3EB5044602208DF80000CA2026
:102110008DF80100E3208DF8020009208DF80300FE
:102120006A460421682002F005FCA3208DF8000017
:1021300004F0400048B1C0208DF80100C8208DF89F
:102140000200C2208DF8030006E0A3208DF80100F4
:102150008DF802008DF8030004F4C07048B1C4206B
:102160008DF80400CC208DF80500C6208DF80600FF
:1021700006E0A3208DF804008DF805008DF8060018
:10218000A3208DF807008DF808008DF809006A4635
:102190000A2140F6A72002F0CDFB04F0030018B19D
:1021A00020208DF8000002E0D8208DF800006A465B
:1021B000012140F6B62002F0BDFB04F0200018B16A
:1021C000012000F0ADF802E0002000F0A9F804F4CE
:1021D000C07008B304F4807060B1B2208DF80000C4
:1021E0008B208DF80100B6208DF802009B208DF821
:1021F00003000BE0B0208DF8000080208DF8010076
:10220000B4208DF8020090208DF803006A46042166
:1022100040F6A22002F08EFB04F0010020B3F8206B
:102220008DF800006A4601214FF40B6002F082FB3A
:10223000FA21072000F02EFC072000F0F5FB01201A
:1022400000F015FC642000F005FD4FF4FA7000F07A
:1022500014FDC821304800F0A5FB282000F0BEFB8B
:102260000A2000F0CEFB08E0D8208DF800006A4676
:1022700001214FF40B6002F05DFB04F0020018B185
:10228000D9208DF8000002E0D8208DF800006A46C1
:10229000012140F23D7002F04DFB04F0040018B142
:1022A000012000F069F802E0002000F065F804F079
:1022B000100018B10120FFF707FF02E00020FFF730
:1022C00003FF44F008001549488101F001FF002098
:1022D0001249887304F0400018B10846807B801DC5
:1022E000887304F4C07020B10C48807B801D0B49BA
:1022F000887304F0140020B10848807B103007492F
:10230000887304F0030020B10448807B001D03495A
:10231000887300203EBD000009E3CA02540100207A
:102320003EB504466CB10EA1D1E900208968CDE923
:10233000002002916A4609214FF4976002F0FAFAF0
:102340003EBD0AA2D2E900109268CDE901020091D7
:102350006A4609214FF4976002F0ECFAF0E70000BA
:10236000B8AAB38DB4980D355D000000B8AAAAAA2A
:10237000B088C3C5C700000038B5044664B1C020AA
:102380008DF80000C2208DF80100C4208DF80200F5
:10239000C6208DF8030004E08B2204216846FDF777
:1023A000B3FF6A46042140F6982002F0C3FA01F018
:1023B0008FFE38BD10B5C8234FF48062024940F645
:1023C000F63001F0F7FC10BD445A00082DE9F04F3B
:1023D0008DB00746884615469946DDE9166B002400
:1023E000002030806B49887B5A4605A901F0D0FD5A
:1023F00018B1601E0DB0BDE8F08F6648807A00F01D
:102400001400002867D09DF8140000069DF81510F0
:1024100040EA01409DF8161040EA01209DF817108F
:10242000084328609DF8180000069DF8191040EA3E
:1024300001409DF81A1040EA01209DF81B10084346
:1024400068609DF81C0000069DF81D1040EA0140E0
:102450009DF81E1040EA01209DF81F100843A86057
:102460009DF8200000069DF8211040EA01409DF8EB
:10247000221040EA01209DF823100843E86004F18F
:102480001000C4B22868001401906868001402901B
:10249000A86800140390E868001404900198404371
:1024A000029901FB0100039901FB0100049901FB62
:1024B000010ABAF1706F02DBBAF1885F05DD01F045
:1024C00007FE00203080401E94E7B6F9000040F47B
:1024D0008070308000BF2F48807A00F0400020B329
:1024E00005A9601C085C095D40EA012000B2A8F85B
:1024F000000005A9E01C095C05AAA01C105C41EACB
:10250000002000B2A8F8020005A9601D095C201D8A
:10251000105C41EA002000B2A8F80400A01DC4B27B
:10252000B6F9000040F0080030801A48408900F4F5
:10253000C07008B305A9601C085C095D40EA012071
:1025400000B2388005A9E01C095C05AAA01C105C3B
:1025500041EA002000B2788005A9601D095C201DB9
:10256000105C41EA002000B2B880A01DC4B2B6F9E8
:10257000000040F0700030800648807A00F00300D0
:1025800018B105A90819FFF759FD484602F012FADB
:1025900000202FE75401002070B588B0064601A83E
:1025A00001F0BCFABDF804000021C90341EA50451E
:1025B000C40300BF4448007A00F0030056F820002E
:1025C00005904148007A00F0040010B1059840429F
:1025D00005903D48007AC0F3C10056F820000690EF
:1025E0003948007A00F0200010B106984042069069
:1025F0003548007AC0F3811056F820000790324821
:10260000008900F4807010B1079840420790059847
:10261000C117A0FB042301FB043100FB051081005E
:1026200041EA927005900698C117A0FB042301FBB4
:10263000043100FB0510810041EA92700690079872
:10264000C117A0FB042301FB043100FB051081002E
:1026500041EA927007900598000E8DF808000598E1
:10266000000C8DF809000598000A8DF80A000598FD
:10267000C0B28DF80B000698000E8DF80C0006987D
:10268000000C8DF80D000698000A8DF80E000698D3
:10269000C0B28DF80F000798000E8DF81000079853
:1026A000000C8DF811000798000A8DF812000798A9
:1026B000C0B28DF8130002AA0C214FF4257002F06D
:1026C00039F908B070BD00005401002030B585B064
:1026D000044616A207CA02AB07C3C82C03DD4FF09D
:1026E000FF3005B030BDC82090FBF4F0401E85B22D
:1026F000280A8DF80000E8B28DF801006A46022130
:1027000040F2162002F016F910B14FF0FF30E8E762
:1027100002AA0C2140F6C12002F00CF910B14FF0D2
:10272000FF30DEE7044884810020DAE7FEF2ABC424
:10273000AAF1DFDFBBAFDFDF540100201FB5044685
:102740004848007A00F0030054F820000190454802
:10275000007A00F0040010B1019840420190414815
:10276000007AC0F3C10054F8200002903D48007A7E
:1027700000F0200010B10298404202903948007ADF
:10278000C0F3811054F8200003903648008900F40B
:10279000807010B10398404203903349019880FB48
:1027A0000101800F40EA810001902F49029880FBCF
:1027B0000110820042EA917002902B49039880FB3D
:1027C0000110820042EA917003900198000E8DF88A
:1027D00000000198000C8DF801000198000A8DF8A6
:1027E00002000198C0B28DF803006A4604214FF43C
:1027F000747002F09FF818B14FF0FF3004B010BDB4
:102800000298000E8DF800000298000C8DF801006F
:102810000298000A8DF802000298C0B28DF80300F9
:102820006A4604214FF4757002F084F810B14FF03D
:10283000FF30E3E70398000E8DF800000398000CCA
:102840008DF801000398000A8DF802000398C0B2C9
:102850008DF803006A4604214FF4767002F06AF89E
:10286000CCE700005401002009E3CA0210B586B08D
:10287000044647A00068039046A00068029046A066
:102880000068019045A00068009004F0030003A9CF
:10289000085C8DF8140003A8C4F3C101405C8DF8F6
:1028A000150003A8C4F38111405C8DF8160004F0F4
:1028B000030002A9085C8DF8100002A8C4F3C1014E
:1028C000405C8DF8110002A8C4F38111405C8DF8C2
:1028D000120005AA032140F2264002F02BF818B19D
:1028E0004FF0FF3006B010BD04AA032140F22A4089
:1028F00002F020F810B14FF0FF30F3E70198059097
:102900000098049004F0040058B19DF8140040F0C1
:1029100001008DF814009DF8100040F001008DF8C2
:10292000100004F0200058B19DF8150040F001009F
:102930008DF815009DF8110040F001008DF8110090
:1029400004F4807058B19DF8160040F001008DF835
:1029500016009DF8120040F001008DF8120005AA43
:1029600003214FF4886001F0E5FF10B14FF0FF3014
:10297000B8E704AA032140F2314001F0DBFF10B1B7
:102980004FF0FF30AEE7064804810020AAE70000C0
:102990004CCD6C000CC92C003656760026466600DD
:1029A00054010020F8B505460E464FF47A7095FBA9
:1029B000F0F000FB06F4200E8DF80000200C8DF8DE
:1029C0000100200A8DF80200E0B28DF803006A468B
:1029D00004214FF4AE7001F0ADFFF8BD38B50446E8
:1029E000052094FBF0F084B220128DF80000E0B2D4
:1029F0008DF801006A4602214FF4AD7001F09AFF94
:102A000038BD38B50446052094FBF0F084B220129E
:102A10008DF80000E0B28DF801006A4602214FF403
:102A2000AC7001F087FF38BD38B504460020009037
:102A300004F0010020B19DF8000040F0300000904B
:102A400004F0020020B19DF8000040F00C0000905E
:102A500004F0040020B19DF8000040F00300009055
:102A60006A4601214FF4A47001F064FF38BD38B507
:102A70000446012C01DA012402E0042C00DD0424C8
:102A8000601EC0B200906A46012140F24F1001F072
:102A900051FF38BDF0B52DED028B83B006460F46D1
:102AA00006F0070010B1B7F5C86F05DD4FF0FF3035
:102AB00003B0BDEC028BF0BD00EE107AB8EE400A18
:102AC000DFED5B0A80EE208A01A801F001F89DF895
:102AD0000400022806D0042817D0082828D010287F
:102AE0004CD138E09FED530A28EE000ABCEEC00A34
:102AF00010EE100A84B29FED500A28EE000ABCEED8
:102B0000C00A10EE100A85B23BE09FED4C0A28EE99
:102B1000000ABCEEC00A10EE100A84B29FED480A0B
:102B200028EE000ABCEEC00A10EE100A85B228E0BA
:102B30009FED440A28EE000ABCEEC00A10EE100A0F
:102B400084B29FED410A28EE000ABCEEC00A10EEE6
:102B5000100A85B215E09FED3D0A28EE000ABCEE92
:102B6000C00A10EE100A84B29FED390A28EE000A5E
:102B7000BCEEC00A10EE100A85B202E04FF0FF3042
:102B800096E700BF20128DF80800E0B28DF809002A
:102B900028128DF80A00E8B28DF80B0006F001004B
:102BA000A0B102AA02214FF4EA7001F0C3FE10B1F5
:102BB0004FF0FF307CE70DF10A0202214FF49270D2
:102BC00001F0B8FE10B14FF0FF3071E706F00200DF
:102BD000A0B102AA02214FF4EC7001F0ABFE10B1DB
:102BE0004FF0FF3064E70DF10A0202214FF49470B8
:102BF00001F0A0FE10B14FF0FF3059E706F00400DD
:102C0000A0B102AA02214FF4EE7001F093FE10B1C0
:102C10004FF0FF304CE70DF10A0202214FF496709D
:102C200001F088FE10B14FF0FF3041E700203FE790
:102C30000000484300008046000040460000004677
:102C40000000C045000080450000404500000045F0
:102C50000000C04438B50446052094FBF0F085B26E
:102C600028128DF80000E8B28DF801006A460221B2
:102C70004FF4EF7001F05EFE38BD38B50446052014
:102C800094FBF0F085B228128DF80000E8B28DF8C0
:102C900001006A4602214FF4ED7001F04BFE38BD91
:102CA00000B587B00020ADF81000ADF812004FF667
:102CB000FF7005900020ADF8180004A93548FEF714
:102CC00049FB0020ADF81000ADF812004FF6FF7080
:102CD00005900020ADF8180004A92F48FEF73AFB34
:102CE00000231A4603212B48FEF7EEF900231A466B
:102CF00003212948FEF7E8F90020ADF80400ADF8FB
:102D000006000120ADF808000020ADF80A000620FA
:102D1000ADF80C0001A92048FEF708FA0420ADF830
:102D200004000220ADF808000020ADF80600ADF860
:102D30000A000620ADF80C0001A91748FEF7F6F9C5
:102D400001211548FEF7A5F90020ADF80400ADF803
:102D500006000120ADF808000020ADF80A000620AA
:102D6000ADF80C0001A90B48FEF7E0F90420ADF81E
:102D700004000220ADF8080001A90648FEF7D6F9C4
:102D800001210448FEF785F901210248FEF78DF97B
:102D900007B000BD00000140000C004082B0CDE94A
:102DA000000121F0004001909DED000B02B051ECBC
:102DB000100B70472DE9F04FADF21C4D06460D4645
:102DC0009246984600240020049001208DF81800B7
:102DD00000208DF81900FE4A1268517DFC4A5268A5
:102DE000107806AB0222FDF7FDFE20B1601E0DF249
:102DF0001C4DBDE8F08FC820FFF752F900208DF878
:102E00001800F34A1268517CF14A5268107806ABF8
:102E10000122FDF7E7FE10B14FF0FF30E7E7EC4A83
:102E200012685179EA4A5268107806AB0122FDF720
:102E3000D9FE10B14FF0FF30D9E7E54A1268517D55
:102E4000E34A5268107806AB0122FDF7CBFE10B1C1
:102E50004FF0FF30CBE7DE4A1268917EDC4A5268C1
:102E6000107806AB0122FDF7BDFE10B14FF0FF3028
:102E7000BDE7D74A12681179D54A5268107806AB77
:102E80000122FDF7AFFE10B14FF0FF30AFE70C208D
:102E90008DF81800CE4A12681179CD4A5268107820
:102EA00006AB0122FDF79EFE10B14FF0FF309EE70A
:102EB0000F20FFF7F5F8C648806A407A8DF81800B1
:102EC000C34A12689178C24A5268107806AB012250
:102ED000FDF788FE10B14FF0FF3088E7BC48806AEC
:102EE000007A8DF81800BA4A12685178B84A5268C8
:102EF000107806AB0122FDF775FE10B14FF0FF30E0
:102F000075E7BAF1000F07D0B148806A807A40F0C7
:102F1000E0008DF8180004E0AD48806A807A8DF8F2
:102F20001800AB4A12689179A94A5268107806AB2A
:102F30000122FDF757FE10B14FF0FF3057E7BAF10D
:102F4000000F07D0A248806AC07A40F0E0008DF8F8
:102F5000180003E09F48C07A8DF818009C4A126858
:102F6000D1799B4A5268107806AB0122FDF73AFEF0
:102F700010B14FF0FF303AE796498889FFF790F893
:102F800040208DF81800924A12681179904A5268D0
:102F9000107806AB0122FDF725FE10B14FF0FF308F
:102FA00025E778208DF81800894A12685179884AF7
:102FB0005268107806AB0122FDF714FE10B14FF0F5
:102FC000FF3014E70020B06070603060A860686077
:102FD0002860B8F1000F01D000BF00BFA2E07D491A
:102FE000888DFFF75DF87A4A1268117B784A52683B
:102FF000107806AB0222FDF7BCFD10B14FF0FF3098
:10300000F5E69DF819009DF8181040EA012005909A
:103010000C21059890FBF1F000F0FF096D48807BD2
:10302000001B484504DA6B48807B001B00F0FF0959
:1030300009EB490083000493049BDAB2644B1B68DC
:10304000597B634B5B68187806ABFDF792FD10B1B6
:103050004FF0FF30CBE60027BB4660E006A9781CA6
:10306000085CC95D40EA012000B2ADF8080006A97D
:10307000F81C095C06AAB81C105C41EA002000B2EA
:10308000ADF80A0006A9781D095C381D105C41EAFC
:10309000002000B2ADF80C00BDF908102868084403
:1030A0002860BDF90A10686808446860BDF90C1012
:1030B000A8680844A86006A9F81D095CB81D105C42
:1030C00041EA002000B2ADF8000006A907F10900AE
:1030D000095C401E105C41EA002000B2ADF802001D
:1030E00006A907F10B00095C401E105C41EA0020B4
:1030F00000B2ADF80400BDF900103068084430603B
:10310000BDF90210706808447060BDF90410B06821
:103110000844B0600C370BF1010000F0FF0BCB4509
:103120009CDB4C442B48807BA0423FF758AFB8F162
:10313000000F01D000BF00BF00208DF81800244A06
:1031400012685179224A5268107806AB0122FDF7C5
:1031500049FD10B14FF0FF3049E61E48D0F800C0DD
:103160003068C117090441EA10410204CDE9002189
:10317000624600230098FDF777F82246E317CDE971
:103180000201FDF771F830601248D0F800C0706895
:10319000C117090441EA10420004CDE90002624669
:1031A00000230199FDF760F82246E317CDE90201FB
:1031B000FDF75AF870600748D0F800C0B068C11732
:1031C000090441EA10410204CDE90021624603E00E
:1031D000B00000201458000800230098FDF744F8C0
:1031E0002246E317CDE90201FDF73EF8B0602D4815
:1031F000D0F804C02868C117090441EA104200044D
:10320000CDE90002624600230199FDF72DF8224620
:10321000E317CDE90201FDF727F828602148D0F82F
:1032200004C06868C117090441EA10410204CDE9ED
:103230000021624600230098FDF716F82246E317A6
:10324000CDE90201FDF710F868601648D0F804C017
:10325000A868C117090441EA10420004CDE9000240
:10326000624600230199FCF7FFFF2246E317CDE9F0
:103270000201FCF7F9FFA860A868002804DDA8682F
:10328000A0F58030A86003E0A86800F58030A86051
:10329000B8F1000F03D000BF00BF00BF00BF002087
:1032A000A5E50000145800081CB5C02000900220BD
:1032B0008DF8040003208DF8050000208DF806002D
:1032C00001208DF8070069464B48FDF7C7F930200B
:1032D000009001208DF8040003208DF805000020E7
:1032E0008DF8060001208DF8070069464348FDF778
:1032F000B5F90320009001208DF8040003208DF81B
:10330000050000208DF8060001208DF807006946B1
:103310003B48FDF7A3F98020009001208DF80400C0
:1033200003208DF8050000208DF8060001208DF89F
:10333000070069463348FDF791F94FF4807000901B
:1033400001208DF8040003208DF8050001208DF880
:1033500006008DF8070069462A48FDF77FF98021AD
:103360002848FDF7F1F94FF480712648FDF7ECF994
:103370000320009002208DF8040003208DF8050042
:1033800000208DF8060001208DF8070069461A48D4
:10339000FDF764F94FF44070009002208DF80400AE
:1033A00003208DF8050000208DF8060001208DF81F
:1033B000070069461048FDF751F9012208210E481F
:1033C000FDF794F9012209210B48FDF78FF902223C
:1033D00000210948FDF78AF9022201210648FDF77C
:1033E00085F9022206210448FDF780F9022207210F
:1033F0000148FDF77BF91CBD0000024000080240B7
:1034000000040240001002402DE9F0432DED028B34
:103410008BB00746884615460026B1467A4949686A
:10342000087801AB03220021FDF7A3FB40B10DB1E9
:1034300000BF00BF07200BB0BDEC028BBDE8F083DE
:103440000DB100BF00BF00243CE001A8005D70B3D7
:1034500001A8005D401E6D4931F8100000EE100A11
:10346000B8EE400A02A800EB840080ED000A02A832
:1034700000EB840090ED000ADFED650A20EE200AE3
:1034800002A800EB840080ED000A02A800EB840093
:10349000D0ED000A5F4890ED000AB8EE400A80EED9
:1034A000801A02A800EB840080ED001A09E0FFE713
:1034B0009FED590A02A800EB840080ED000A4FF04E
:1034C0000109641C032CC0DBB9F1000F44D10DB11C
:1034D00000BF00BF00243CE058F8240057F8241037
:1034E000401A00EE100AB8EEC00A08A800EB8400EB
:1034F00080ED000A1DB100BF00BF00BF00BF08A8DB
:1035000000EB840090ED000A02A800EB8400D0EDEF
:10351000000A80EE201A05A800EB840080ED001A56
:103520000DB100BF00BF05A800EB840090ED000ABC
:10353000B0EEC00A3748D0ED060AB4EEE00AF1EE6C
:1035400010FA05D20DB100BF00BF0120A040064314
:10355000641C032CC0DB31E02E4890ED050ADFED42
:103560002C0A20EE208A1DB100BF00BF00BF00BFA3
:10357000002421E058F8240057F82410401A00EEE7
:10358000100AB8EEC00A08A800EB840080ED000A1B
:103590000DB100BF00BF08A800EB840090ED000A49
:1035A000B4EEC80AF1EE10FA05D20DB100BF00BFAB
:1035B0000120A0400643641C032CDBDB0EBB154836
:1035C00090ED040ADFED120A60EE208A0DB100BF13
:1035D00000BF002413E057F8240000EE100AB8EEF4
:1035E000C00AB0EEC00AB4EEE80AF1EE10FA05DD4A
:1035F0000DB100BF00BF0120A0400643641C032C96
:10360000E9DB304617E70000B0000020445800080E
:1036100000008047145800080000000010B54FF467
:1036200080710D48FDF78EF80820FEF743FD8021DC
:103630000948FDF789F80820FEF73CFD802106487F
:10364000FDF780F80820FEF735FD4FF48071024841
:10365000FDF77AF810BD00000010024010B54FF4DD
:1036600080710A48FDF770F80420FEF723FD8021E1
:103670000648FDF769F80420FEF71CFD8021034889
:10368000FDF760F80420FEF715FD10BD00100240A4
:1036900070B50024002519E06006040E80210D4855
:1036A000FDF752F80820FEF705FD4FF48071094838
:1036B000FDF73FF808B1601CC4B280210548FDF752
:1036C00041F80820FEF7F6FC681CC5B2082DE3DBC4
:1036D000204670BD0010024070B50446002500BFB2
:1036E00029E004F0800028B14FF480711348FDF701
:1036F0002BF804E04FF480711048FDF723F8082000
:10370000FEF7D8FC80210D48FDF71EF80820FEF7D3
:10371000D1FC80210948FDF715F8072D04D14FF49D
:1037200080710648FDF710F86006040E0820FEF7C9
:10373000C1FC681CC5B2082DD3DB70BD001002406F
:1037400010B54FF480710D48FCF7FEFF80210B4847
:10375000FCF7FAFF0420FEF7ADFC4FF48071074838
:10376000FCF7F0FF0420FEF7A5FC80210348FCF7DE
:10377000E9FF0420FEF79EFC10BD0000001002408F
:1037800010B54FF480710848FCF7DCFF8021064833
:10379000FCF7DAFF0420FEF78DFC4FF4807102483D
:1037A000FCF7D2FF10BD00000010024010B54FF42E
:1037B00080710F48FCF7C8FF0820FEF77BFC8021D2
:1037C0000B48FCF7C1FF0820FEF774FC4FF4807132
:1037D0000748FCF7AEFF08B1012400E00024802177
:1037E0000348FCF7AFFF0820FEF764FC204610BD3D
:1037F0000010024070B50546284600F00FF8044658
:10380000E81C00F00BF844EAC00084B2A81D00F0E8
:1038100005F844EA801084B2204670BD014691F953
:103820000020002A01DD00201EE091F90020002A7E
:1038300001DA042018E091F90120002A01DD0120BD
:1038400012E091F90120002A01DA05200CE091F93B
:103850000220002A01DD022006E091F90220002A60
:1038600001DA062000E007207047000000BF4FF497
:10387000A060FDF741F9FEF7C1FB9FED151ADFEDE2
:10388000150A9FED150A1548FCF762FF9FED141A03
:10389000DFED100A9FED130A1348FCF759FF0020D3
:1038A00012490860002400BFFDF78EF80446002C82
:1038B000FAD10BE00E480078012807D100200C490E
:1038C00008700C4A0C490D48FCF774FFF2E7000041
:1038D0000AD7233CA69B443B0AD7A33CE800002020
:1038E0008FC2F53C6F12833A0C01002004000020C7
:1038F000AD0000205C000020580000205400002093
:1039000000B589B040F6330007900020ADF81A00EA
:103910000120ADF818000020ADF8200006A91348DA
:10392000FDF718FD6020ADF804000120ADF8060099
:103930000020ADF8100001A90C48FDF737FC082164
:103940000A48FDF771FC01A90848FDF777FC08213A
:103950000648FDF7C5FC01210448FDF78BFB01215A
:103960000248FDF796FB09B000BD000000040040CE
:1039700010B56420FEF794FB00216B2000F04CF89A
:103980006420FEF78DFB0121192000F045F8082185
:103990001C2000F041F808211B2000F03DF83220E7
:1039A000FEF788FB10BD70B506460D461446FFF7BE
:1039B000E7FEFFF7C5FED220FFF78EFEFFF7F6FE0B
:1039C00000B125E03046FFF787FEFFF7EFFE00B1BC
:1039D0001EE0FFF7D5FEFFF7B3FED320FFF77CFE16
:1039E000FFF7E4FE00B113E00CE0FFF751FE287092
:1039F0006D1C012C02D1FFF731FE01E0FFF70EFE36
:103A0000601EC4B2002CF0D1FFF7BAFE002070BDDA
:103A1000FFF7B6FE0120FAE770B505460C46FFF742
:103A2000AFFEFFF78DFED220FFF756FEFFF7BEFE7A
:103A300000B111E02846FFF74FFEFFF7B7FE00B1D7
:103A40000AE02046FFF748FEFFF7B0FE00B103E0B2
:103A5000FFF796FE002070BDFFF792FE0120FAE707
:103A600070B50446002624F00104184890F824009C
:103A700008B1002070BD1548807A10B94FF0FF30B2
:103A8000F8E71248057C807A2040104908740846FF
:103A9000007CA04202D04FF0FF3600E0002614B9AF
:103AA0000A48007D18B1012001F004F802E000206E
:103AB00001F000F83CB100F00BFB20B103480574A5
:103AC0004FF0FF30D6E73046D4E70000B0000020CA
:103AD00001461148407A30B1012807D0022808D0A9
:103AE00003280CD108E0022008700BE004200870C5
:103AF00008E00820087005E01020087002E04FF090
:103B0000FF30704700BF0448C07C18B108784006F9
:103B1000000E08700020F4E7B000002001461348B2
:103B2000407A30B1012808D002280AD0032810D1E9
:103B30000BE04FF4804008800EE04FF40050088006
:103B40000AE04FF48050088006E04FF400600880DF
:103B500002E04FF0FF30704700BF0448C07C10B156
:103B60000888401008800020F5E70000B000002021
:103B700001460248007C087000207047B000002019
:103B800001460F48007A30B1012807D0022809D039
:103B900003280FD10AE0FA2008800EE04FF4FA70F3
:103BA00008800AE04FF47A70088006E04FF4FA606B
:103BB000088002E00020088000BF00BF002070479E
:103BC000B000002001461248007A30B1012809D027
:103BD00002280CD0032814D10EE09FED0E0A81EDCF
:103BE000000A11E09FED0C0A81ED000A0CE09FED48
:103BF0000B0A81ED000A07E09FED090A81ED000A3A
:103C000002E04FF0FF30704700BF0020FBE70000EC
:103C1000B00000200000034300008342333303421E
:103C20003333834101461248C07A082817D2DFE8AF
:103C300000F01704070A0D101318BC20088013E0C9
:103C40006220088010E02A2008800DE014200880FF
:103C50000AE00A20088007E00520088004E000BF91
:103C600000BF0020088000BF00BF00207047000098
:103C7000B00000200146064890F8240010B14FF033
:103C8000FF3070470248C08908800020F9E7000033
:103C9000B00000201CB5044680208DF80000444A86
:103CA0001268517D424A526810786B460122FCF737
:103CB00099FF10B14FF0FF301CBD6420FEF7F0F902
:103CC00000208DF800003A4A1268517D384A526847
:103CD00010786B460122FCF785FF10B14FF0FF30E2
:103CE000EAE700213248C17448208DF80000304ACC
:103CF0001268117A2E4A526810786B460122FCF73E
:103D000071FF10B14FF0FF30D6E7FF2128488172D4
:103D1000FF2027490872FF2125484172C1724FF6E2
:103D2000FF71C181FF21017481740121017380F849
:103D30002210002180F823104175017516300160B2
:103D400041608160163880F8241080F82510C18405
:103D50004FF4FA6000F07CFC10B14FF0FF30ABE79D
:103D6000022000F045FB10B14FF0FF30A4E72A20FD
:103D700000F0E8FC10B14FF0FF309DE7322000F07A
:103D800023FD10B14FF0FF3096E70020FFF768FEEB
:103D900010B14FF0FF308FE7002000F06BFB10B147
:103DA0004FF0FF3088E7002000F05CFD002083E743
:103DB000B00000202DE9F04385B005460E46904640
:103DC00099462B4890F8250020B14FF0FF3005B000
:103DD000BDE8F08316B94FF0FF30F8E7002426E085
:103DE000281B102801DD102000E0281B87B23219A3
:103DF0003946204600F09EFD10B14FF0FF30E6E757
:103E00000120FEF74DF901AA3946204600F020F9BD
:103E100010B14FF0FF30DAE730193A4601A9FCF74C
:103E200047FA10B16FF00100D1E7E01984B2AC425B
:103E3000D6DB4FEA28208DF8000008F0FF008DF84F
:103E400001000B4A1268517F094A526810786B468C
:103E50000222FCF7C7FE10B14FF0FF30B7E7012197
:103E6000034880F82510A0F826900020AFE7000056
:103E7000B000002038B50446282C02DD4FF0FF309A
:103E800038BDDCB9002000F027FC00208DF80000D0
:103E900007208DF801003D4A1268517D3B4A526867
:103EA00010786B460222FCF79DFE10B14FF0FF30F8
:103EB000E6E70021354801750020E1E7012000F028
:103EC0000BFC012C03D102208DF8000033E0022C02
:103ED00003D103208DF800002DE0052C03DC042025
:103EE0008DF8000027E00A2C03DC05208DF8000087
:103EF00021E0142C03DC06208DF800001BE0282CA8
:103F000003DC07208DF8000015E0502C03DC0820AE
:103F10008DF800000FE0A02C03DC09208DF80000D4
:103F200009E0B4F5A07F03DC0A208DF8000002E070
:103F30000B208DF80000154A1268517A134A526816
:103F400010786B460122FCF74DFE10B14FF0FF30A8
:103F500096E720208DF800000C4A1268517D0B4A2C
:103F6000526810786B460122FCF73CFE10B14FF00E
:103F7000FF3085E708210548817200210173012186
:103F800001750020FFF76CFD002079E7B0000020EC
:103F9000F8B504460F4616462C4890F8240010B990
:103FA0004FF0FF30F8BD2948807A10B94FF0FF304C
:103FB000F8E7264A1268117B244A526810786B464B
:103FC0000222FCF7D6FD10B14FF0FF30EAE79DF872
:103FD00001009DF8001040EA0125A54203DA002007
:103FE0003070401EDEE7194840684088B5EB600F2E
:103FF00017DD164A1268D17C144A526810786B4655
:104000000122FCF7B6FD10B14FF0FF30CAE79DF872
:10401000000000F0100020B100F05AF86FF001002D
:10402000C0E7E2B2094B1B68597B084B5B68187804
:104030003B46FCF79EFD10B14FF0FF30B2E795FB19
:10404000F4F0401E30700020ACE70000B00000200B
:10405000F8B504460D46164616B94FF0FF30F8BDC8
:104060001A48807A10B94FF0FF30F8E720128DF827
:104070000000E0B28DF801009DF8010028441349CA
:1040800049684989884202DD4FF0FF30E7E70F4A6F
:104090001268D17E0D4A526810786B460222FCF7F6
:1040A000A1FD10B14FF0FF30D9E7EAB2074B1B6812
:1040B000197E064B5B6818783346FCF75AFD10B141
:1040C0004FF0FF30CBE70020C9E70000B000002030
:1040D00008B57048807A10B94FF0FF3008BD002055
:1040E00000906C4A1268517C6A4A526810786B469C
:1040F0000122FCF777FD10B14FF0FF30EEE7654A83
:1041000012685179634A526810786B460122FCF7B5
:1041100069FD10B14FF0FF30E0E75E4A1268117997
:104120005C4A526810786B460122FCF75BFD10B1C7
:104130004FF0FF30D2E7574890F82400002853D0C2
:104140000C200090534A12681179524A5268107834
:104150006B460122FCF746FD10B14FF0FF30BDE782
:104160003220FDF79DFFC02000904A48807A00F081
:10417000010020B19DF8000040F020000090454A69
:1041800012681179434A526810786B460122FCF795
:1041900029FD10B14FF0FF30A0E73E48407C10B140
:1041A0000220009001E0002000903A4A1268517C01
:1041B000384A526810786B460122FCF713FD10B1A3
:1041C0004FF0FF308AE700200090324A12685179A0
:1041D000304A526810786B460122FCF703FD002834
:1041E00055D04FF0FF3079E704200090294A12683B
:1041F0001179284A526810786B460122FCF7F2FCCC
:1042000010B14FF0FF3069E72248807C20B9214887
:10421000807A00F0010010B94020009001E0602099
:1042200000901C4A126811791A4A526810786B463D
:104230000122FCF7D7FC10B14FF0FF304EE73220DF
:10424000FDF72EFF1348407C10B10120009001E0E3
:10425000002000900F4A1268517C0E4A5268107874
:104260006B460122FCF7BEFC10B14FF0FF3035E782
:10427000084A12685179074A52681078054B103382
:104280000122FCF7AFFC10B14FF0FF3026E7002011
:1042900024E70000B00000202DE9F74F8CB08846DD
:1042A000144602200B900CB100BF00BF4F4890F89D
:1042B000240020B1002000F083F9012700E000274E
:1042C00002A8FFF75DFC04A8FFF702FC6846FFF7B1
:1042D000A9FC01A8FFF7CEFC444890F80AB003A857
:1042E000FFF746FC0CB100BF00BF002508E02346E5
:1042F000002241460C98FEF75DFD00B902E06D1CFE
:10430000022DF4DB00BF022D04D10CB100BF00BFB1
:10431000002639E00CB100BF00BF002508E02346AD
:10432000012205A908A8FEF745FD00B902E06D1CB1
:10433000022DF4DB00BF022D04D10CB100BF00BF81
:10434000002621E0224605A94046FDF72DFD00F09C
:10435000FF090CB100BF00BF224608A90C98FFF767
:1043600053F800F0FF0A0CB100BF00BF0026BAF1FD
:10437000000F01D146F00106B9F1000F01D146F05E
:10438000020646F0040600BF0CB100BF00BFFF20CC
:1043900016490872FF2115484172C1724FF6FF712C
:1043A000C181FF218172017401210173BDF80800F0
:1043B00000F04EF99DF8100000F01AF8BDF800006A
:1043C00000F0C0F9BDF8040000F0FEF9584600F016
:1043D00049FA9DF80C00FFF743FB17B1012000F0EC
:1043E000EFF830460FB0BDE8F08F0000B0000020BD
:1043F00038B504461E48807A10B94FF0FF3038BDFA
:10440000022C06D0042C07D0082C08D0102C0CD17C
:1044100008E0002000900BE00820009008E0102049
:10442000009005E01820009002E04FF0FF30E6E732
:1044300000BF0F48407A9DF80010B0EBE10F01D1AA
:104440000020DCE70A4A1268D179094A52681078DC
:104450006B460122FCF7C6FB10B14FF0FF30CEE7F0
:104460009DF80000C110024841720020C7E700001B
:10447000B000002038B504465048807CA04201D1ED
:10448000002038BD002C46D04C4A126811794B4AA6
:10449000526810786B460122FCF76BFB10B14FF0AD
:1044A000FF30EEE79DF8000020F020000090434A26
:1044B00012681179414A526810786B460122FCF764
:1044C00091FB10B14FF0FF30DBE70320FDF7E8FD73
:1044D00002200090394890F8220020B19DF8000099
:1044E00040F080000090354890F8230020B19DF8FE
:1044F000000040F030000090304A1268D17D2F4A11
:10450000526810786B460122FCF76CFB002851D0F2
:104510004FF0FF30B5E7294A12681179274A5268EF
:1045200010786B460122FCF724FB10B14FF0FF30EE
:10453000A7E72248807A00F0010028B19DF800002A
:1045400040F02000009004E09DF8000020F02000E2
:1045500000901A4A12681179184A526810786B460E
:104560000122FCF73FFB10B14FF0FF3089E7032039
:10457000FDF796FD114890F8220010B180200090C0
:1045800001E0002000900D4890F8230020B19DF834
:10459000000040F030000090084A1268D17D074AC0
:1045A000526810786B460122FCF71CFB10B14FF0EB
:1045B000FF3066E701488474002062E7B000002005
:1045C00038B50446214890F82400A04201D10020CB
:1045D00038BD24B31D4890F8250010B94FF0FF30C6
:1045E000F6E7002000F066FA0020FFF743FF1749C6
:1045F000C88C00F0E9F80020009014494968087858
:104600006B4601222321FCF7EDFA01210F4880F8C7
:104610002410012000F04EFAFFF75AFD13E00020AD
:1046200000F048FA0948007C009008494968087879
:104630006B4601222321FCF7D5FA0021034880F8BC
:104640002410FFF745FD0020C2E70000B000002065
:1046500038B504461F48807A10B94FF0FF3038BD96
:10466000FA2C09D0B4F5FA7F09D0B4F57A7F09D0D5
:10467000B4F5FA6F0CD108E0002000900BE00820A0
:10468000009008E01020009005E01820009002E063
:104690004FF0FF30E3E700BF0E48007A9DF80010AE
:1046A000B0EBE10F01D10020D9E70A4A12689179F5
:1046B000084A526810786B460122FCF793FA10B151
:1046C0004FF0FF30CBE79DF80000C01001490872A1
:1046D0000020C4E7B000002038B50446184890F820
:1046E0002300A04201D1002038BD14B13020009039
:1046F00001E0002000901248807C20B19DF800006D
:1047000040F0020000900E4890F8220020B19DF881
:10471000000040F080000090094A1268D17D084AEC
:10472000526810786B460122FCF75CFA10B14FF02A
:10473000FF30D9E7024880F823400020D4E700008A
:10474000B000002038B504461E48807A10B94FF0FA
:10475000FF3038BDBC2C02DB0120009015E0622C3C
:1047600002DB0220009010E02A2C02DB03200090E4
:104770000BE0142C02DB0420009006E00A2C02DB84
:104780000520009001E0062000900E48C07A9DF8B8
:104790000010884201D10020DBE70A4A12689178B4
:1047A000084A526810786B460122FCF71BFA10B1D8
:1047B0004FF0FF30CDE79DF800100248C172002095
:1047C000C7E70000B000002038B504462448807ACE
:1047D00010B94FF0FF3038BD214890F8240010B1D7
:1047E0004FF0FF30F7E71E48007D50B134B1282C60
:1047F00004DC2046FFF73EFB0020ECE70020FFF73B
:1048000039FB042C01DA042404E0B4F57A7F01DDDD
:104810004FF47A744FF47A7090FBF4F0401EC0B2FB
:1048200000900F4A126851780D4A526810786B4612
:104830000122FCF7D7F910B14FF0FF30CBE79DF81C
:104840000000401C4FF47A7191FBF0F081B20448F3
:10485000C1810146C9894810FFF774FF0020BAE7FB
:10486000B000002038B5044604F0700010B10120FB
:10487000009005E014B10020009001E0402000907D
:104880002B4A1268517D2A4A526810786B460122E1
:10489000FCF7A8F920B1002125488172481E38BDD7
:1048A0009DF8000020F04001214801730020009095
:1048B00004F0400020B99DF8000040F00400009092
:1048C00004F0200020B99DF8000040F002000090A4
:1048D00004F0100020B99DF8000040F001000090A5
:1048E00004F0080020B99DF8000040F03800009066
:1048F0000F4A1268917D0E4A526810786B46012269
:10490000FCF770F920B1002109488172481EC6E702
:1049100024B1082C02D00020FFF7DEFE0448847288
:10492000002101753220FDF7BBFB0020B7E7000036
:10493000B0000020F8B504460D46164616B94FF0F3
:10494000FF30F8BD1A48807A10B94FF0FF30F8E711
:1049500020128DF80000E0B28DF801009DF80100F2
:104960002844134949684989884202DD4FF0FF30E5
:10497000E7E70F4A1268D17E0D4A526810786B46FD
:104980000222FCF72FF910B14FF0FF30D9E7EAB25D
:10499000074B1B68197E064B5B6818783346FCF79B
:1049A00021F910B14FF0FF30CBE70020C9E700003C
:1049B000B0000020704710B501212020FCF7B8F8A6
:1049C00001211020FCF7B4F801210220FCF7B0F817
:1049D00001210846FCF7BCF801210820FCF7A8F8E3
:1049E00001210846FCF794F801210220FCF790F819
:1049F00001210420FCF78CF801211020FCF788F835
:104A000010BD00001CB5002228492948FFF744FCCE
:104A10000446072C45D101A8FFF7D4F8244890EDAF
:104A2000000AB8EEC00ADDED010A20EE200ABDEE54
:104A3000C00A80ED000A90ED010AB8EEC00ADDED73
:104A4000010A20EE200ABDEEC00A80ED010A90EDB9
:104A5000020AB8EEC00ADDED010A20EE200ABDEE22
:104A6000C00A80ED020AFDF769FE6846FFF756F8B6
:104A70000E480068BDF8001048430C49086008461D
:104A80004068BDF8001048430849486008468068FF
:104A9000BDF800104843054988600846FDF77CFDD5
:104AA00002E04FF0FF301CBD0020FCE77001002049
:104AB0006401002038B50446214890F82400C0B1B4
:104AC00014B10220009001E0002000901C4A1268FE
:104AD000517C1B4A526810786B460122FCF782F821
:104AE00010B14FF0FF3038BD9DF8001014484174EC
:104AF00023E01348807A10B94FF0FF30F3E724B178
:104B00000F48407C08B10020EDE714B1012000906F
:104B100001E0002000900A4A1268517C084A52685D
:104B200010786B460122FCF75DF810B14FF0FF30B2
:104B3000D9E79DF80010024841740020D3E7000037
:104B4000B000002000B52DED048B83B041EC190BB3
:104B500000F018FC41EC180B18EE100A18EE901A31
:104B60008DED008B002818BF0120084320F0004085
:104B7000C0F17F6000F1E040C00F14D019EE101AB0
:104B800019EE900A8DED009B002918BF0121084302
:104B900020F00040C0F17F6000F1E040C00F04BF92
:104BA0000120FBF738FC51EC180B03B0BDEC048B73
:104BB00000BD00001FB50720ADF804000020ADF8CF
:104BC0000600092002900020ADF80C0001A90E4853
:104BD000FCF7C0FB012211460B48FCF7DEFA01216D
:104BE0000948FCF756FA36208DF8000001208DF8B0
:104BF000010003208DF8020001208DF803006846B3
:104C0000FBF73EFF1FBD0000001000401FB5532002
:104C1000ADF804000020ADF8060009200290002045
:104C2000ADF80C0001A90E48FCF794FB01221146D7
:104C30000B48FCF7B2FA01210948FCF72AFA3720A1
:104C40008DF8000001208DF8010003208DF802008E
:104C500001208DF803006846FBF712FF1FBD00001E
:104C60000014004081F00041704780F00040704720
:104C700021F00041704720F00040704721F00042D1
:104C8000A2F16052B2F5801F01F0004328BFD2F1BB
:104C90007F6C0BD95FEA001C43EAC20242EB507002
:104CA00018BF704728BF20F001007047B2F5801F81
:104CB000BCBF184670474FEA410C1CF5001F02D2DA
:104CC000084600F08BBD70B500F0FCFA00000089CA
:104CD000FFF7F6BF4FF00040A0F5800070470000DE
:104CE00010B591EA030F48BF83F0004300F11E8422
:104CF000841A71EB030C05D2121943EB0C03001B51
:104D000061EB0C01DFF824E14FEA1154A4EB135CD2
:104D10001EEA430F18BF9EEA445F73D023EA0E03D6
:104D2000DCF1200E21EA045143F4801332D322FA3D
:104D30000CFE10EB0E0023FA0CFE41EB0E01CCF141
:104D4000200E03FA0EFE10EB0E0051F10001B1F53A
:104D5000801FCCF1200E32D201EB045112FA0EF278
:104D6000BDE8104058BF7047401C38BF5FEA4202A0
:104D700018BF7047002814BF20F0010041F1000166
:104D80004FEA410313F5001F38BF7047A1F1C0413E
:104D900000F0E6BA012A43EB0302ACF1200CDCF18F
:104DA0001F0E32BF4FF0000E23FA0CF310EB03007E
:104DB00041EB0451B4EB115FD0D0A1EB045101F5EC
:104DC000801149085FEA300001EB04510ED350F125
:104DD000000038BF12FA0EFE08D1BDE81040C9E746
:104DE000401C38BF5FEA4202CAD1C3E7BDE81040A9
:104DF0004FEA410313F5001F38BF7047A1F1C041CE
:104E000000F0AEBA9EEA445F08D011EA5E0FBDE83A
:104E1000104004BF01F0004100207047BDE8104081
:104E200070B500F04FFA00BF64FBBE3E0000E0FF2B
:104E3000491058BFC1F140415B1058BFC3F1404316
:104E40008B42EFF3008070472DE9C04130B4DFF8AA
:104E5000A0C23CEA111418BF3CEA131400F0EC8025
:104E600081EA03051CEA111444EAD57418BF1CEA50
:104E7000131500F0C780A4EB05044FF0004545EA88
:104E8000C12145EAC32341EA505143EA525304F198
:104E90007F74994204F500344FEAC0204FEAC222E1
:104EA00008BF904200F09C804FEA13650FF2401655
:104EB000765D4FEA134506FB05F7C7F1807706FBE1
:104EC00007F74FEAD737A7FB03687642C8F5803863
:104ED000A7FB06CE38BFA8F1010807FB08E64FF094
:104EE000000EA6FB028CE6FB03CEDCF1000CCEF13B
:104EF000004E38BFAEF1010EA6FB0C584FF0000774
:104F00004FF00005E6FB0E87A1FB08C6A0FB07CE0D
:104F100016EB0E0645F10005E1FB076515F1E04EC5
:104F20007EBFA4F580345FEA46066D4116F1800726
:104F300045F100054FEA17274FEA066647EA05677D
:104F4000A6F1DE46B6F1805F4FEA15251FD9384637
:104F500024F0010C05EBC471BCF1FE6F01EB0C11E8
:104F600002D8F0BCBDE8008124425CBF01F5801E80
:104F70009EEAC47F02D4F0BCBDE80081244238D44C
:104F8000F0BCA1F1C041BDE8004100F0E9B94FEA31
:104F9000D22242EA43524FEAD323A7FB02864FEACA
:104FA000D02040EA415007FB03661EEA0E0F4FEA8D
:104FB000D12105FB026658BFA6EB0056B6EB0056A2
:104FC0004FEA520E4EEAC37E18EB0E0E56EB530E0E
:104FD000BDD518EB02085E417F1C55F10005B6E710
:104FE0004FF480154FF000074FF000064FF0000817
:104FF000ADE7F0BC4FF0000001F1C04101F000410D
:10500000BDE8008111EA0C1F0CEA131500D00CE07A
:1050100013EA0C1F00F025804FF00000F0BC81EA7D
:10502000030101F00041BDE80081F0BCBDE8004192
:1050300081EA030100F094B9F0BCBDE8004170B50D
:1050400000F040F9097EFC3E00F007B881EA030158
:105050004FF0000001F00041704781EA030100F0C9
:105060007FB9F0BCBDE800414FF000002149704716
:10507000FFFDFBF9F7F5F4F2F0EEEDEBE9E8E6E41D
:10508000E3E1E0DEDDDBDAD8D7D5D4D3D1D0CFCDA4
:10509000CCCBCAC8C7C6C5C4C2C1C0BFBEBDBCBBDD
:1050A000BAB9B8B7B6B5B4B3B2B1B0AFAEADACABD8
:1050B000AAA9A8A8A7A6A5A4A3A3A2A1A09F9F9EB2
:1050C0009D9C9C9B9A999998979796959594939364
:1050D000929191908F8F8E8E8D8C8C8B8B8A8989FB
:1050E000888887878685858484838382828181807E
:1050F0000000FF070000F87F51EA030C17D41CF5ED
:10510000801F58BFBCF5801F00F10680994218BF70
:10511000704708BF9042704707D711F5801F58BFEE
:1051200013F5801F19D499427047894270471CF5C6
:10513000801F08D5BCF5801FF7D58B4218BF70477C
:1051400008BF824270474FF4001C1CEB410F38BF70
:105150001CEB430F01D28B42704770B500F0B2F8E0
:10516000922449004FF000514FF08053FFF760BE8A
:10517000DFF848C170B51CEA111E1EBF1CEA1315EA
:105180009EEA0C0F95EA0C0F00F06F8081EA030491
:1051900023EA4C134EEAD47E21EA4C1141F48011EB
:1051A00043F48013AE44A1FB024CA0FB0365AEF1B7
:1051B0007F7E361955EB0C05A1FB034C4CF1000327
:1051C000A0FB021C16EB0C06654153F100030942DB
:1051D00018BF46F0010613F4007F0BD14FEA0331EC
:1051E0004FEA0530340341EA155140EA16506FF09A
:1051F00003020AE04FEAC3214FEAC520F40241EA64
:10520000555140EA56506FF0020202EB2E4201EB7C
:10521000025585EACE710AD05FEA440C18BF24F02B
:10522000004450F1000041F1000120EAD47040F246
:10523000FE7C624500D270BDA84214BF4FF080448E
:105240004FF04044002E08BF0024BEF1806FA8BF7D
:10525000A1F1C041BDE8704080F282804FF00000B3
:1052600001F1C04101F0004170479EEA0C0F0CEAC9
:10527000131518BF95EA0C0F06D04FF0000081EA15
:10528000030E0EF0004170BD00F01CF88900013ED5
:1052900000F007B800F009B84FEA430C5FEA5C5C25
:1052A00008D081EA030100F05BB84FEA410C5FEAE5
:1052B0005C5CF6D14FF00000014970470000FF0729
:1052C0000000F87F0EF1020E2EF0030E5EF8046B64
:1052D000364205D4012A43EB030515F5001F12D809
:1052E000012841EB010C1CF5001F0CD80ED14FEA30
:1052F000D17C15F5001F0CEB4C0C0CF1020C08BF17
:105300004CEBD37C04E04FF0080C01E04FEAD37C77
:105310000CEB4C0526FA05F606F00706B6F1040C70
:1053200006D20EEB860CBDE870404CF0010C6047D5
:10533000DFE80CF0090B02024FF000414FF00000D3
:10534000A1F5002170BD19461046012851EB01045A
:1053500018BFD4F5001484BF002001F0004170BDD7
:105360000808A0F500114FEA3101704791EA030FD8
:1053700010B581F000413FF5BBAC83F0004300F075
:10538000D5B800002DE9F04101F5801CBCF5001FE7
:10539000C0F2A9804FEA115C21EA0C510CF1FD0C1E
:1053A00041F480115FEA5C0C0CF5C07C01D3400035
:1053B000494130A4890241EA905187028E0E0A0CBD
:1053C000A45D04FB04F602FB06F6C6F14046A4FB0E
:1053D0000662F60D46EA422606FB06F4A4FB01230C
:1053E0005242C3F1404338BF5B1EA6FB0242002479
:1053F000E6FB0324D20B42EA4446A6FB0623A1FBAC
:1054000002E2A3FB07E4E3FB61426442C2F1404EC7
:1054100038BFAEF1010EA6FB04234FF00002E6FBFD
:105420000E32A2FB03463400E2FB6264A1FB06E6F7
:10543000A4FB07E8E4FB61687642C8F1405838BF36
:10544000A8F10108A2FB06E4A3FB08E5E2FB68540F
:10545000A1FB05E6A7FB04E8E1FB648618F1200543
:1054600056F10006A809A8F11B08B10908F03F0889
:10547000B8F10A0F40EA86601CD901EB0C51BDE877
:10548000F08100BFFCF5EEE8E2DDD8D3CFCBC7C397
:10549000C0BDB9B6B4B1AEACA9A7A5A3A19F9D9B51
:1054A0009A9896959392908F8D8C8B898887868514
:1054B00084838281A0FB006800FB01F208EB4208B4
:1054C000B8EB872807D5341858EB0104D5D5401C14
:1054D00051F10001D1E7341A78EB0104CDD4401E1C
:1054E00071F10001C9E75FEA4C0C5FEA9C5C0DD1E9
:1054F00005D34FF0000001F00041BDE8F081BDE8A8
:10550000F04170B5FFF7DEFE6DDBFFBEBDE8F04198
:105510004FF00000004970470000F87F10B591EA95
:10552000030F48BF83F000433FF5E2AB841A71EBF1
:10553000030C07D212198CF0004C43EB0C03001B38
:1055400061EB0C01DFF8A4E14FEA1154A4EB135C0A
:105550001EEA430F18BF9EEA445F00F0B08023EAC2
:105560006E03524221EA0451C3EB6E0338BF5B1E47
:10557000DCF1200E25D322FA0CFE10EB0E0043FACC
:105580000CFE41EB0E01CCF1200E03FA0EFE10EBE7
:105590000E0051F10001CCF1200E29D412FA0EF2C6
:1055A00001EB0451BDE8104058BF7047401C1CBFC0
:1055B000B2F1004F704700280CBF491C20F00100D9
:1055C000704712EB020E43EB030218BF4FF0010EBF
:1055D0004EEA4202ACF1200CDCF11E0E54D943FA23
:1055E0000CFE10EB0E0051F1FF31CCF11E0ED5D5A3
:1055F0000EF1010E12FA0EFE404141EB010101EBEA
:10560000445C5FEA5C5C10D910EBDE7001EB045186
:1056100038BFBEF1004FBDE8104018BF70470028EA
:105620000CBF491C20F00100704730D24FEAD42C47
:1056300011F5001124F400641BD0B1FA81F20B3A89
:10564000A41AA41ED2F12003914030FA03F31943A7
:10565000904001EBCC71002C01EB0451BDE81040EF
:10566000A8BF704701F1C0414FF0000001F00041B8
:105670007047B0FA80F310FA03F100D110BDE41ABC
:10568000173C4805C90AE4E701EB045110BD491075
:1056900001EB0451BDE810404FEA300002E04FF04A
:1056A000000170474A0008BF0042F8D0B2F5001F61
:1056B00028BF704701F000414FF0000070479EEA9C
:1056C000445F07D011EA5E0FBDE8104004BF00211F
:1056D00000207047BDE8104070B5FFF7F3FD00BF34
:1056E00040DFF63E83F00041104670470000E0FFC7
:1056F00043004FEAD30C4FEA3C0C43401FBF400726
:105700000CF1605113F0FE4F70471CF0006F03D195
:1057100000200CF0004170470CF0004343EA507049
:1057200010B540EACC0000F00EF800BF0000009277
:105730004FEA0001FFF714BE4FF000414FF00000A8
:10574000A1F5002170470EF1020E2EF0030E5EF857
:10575000044B244204D44FEA4102B2F17F4F11D8E6
:105760004FEA4003B3F17F4F0CD80ED14FEAD07C03
:10577000B2F17F4F0CEB4C0C0CF1020C08BF4CEB60
:10578000D17C04E04FF0080C01E04FEAD17C0CEB37
:105790004C0324FA03F404F00704B4F1040C06D219
:1057A0000EEB840CBDE810404CF0010C6047DFE8C4
:1057B0000CF0070802024FF00040A0F5800010BD79
:1057C0000846420018BFD2F1807288BF00F0004046
:1057D00010BD4FF04070E1EE100A7047FF2141EA22
:1057E000D050C0057047000075191A0C6A231B1CA5
:1057F0001D1E1F207274433B4138393A696B6C3768
:105800006F77246D6E706900000480004101000014
:105810000001000041000000002000000102000023
:10582000C800C8000000A041000070420000003F16
:105830006666663ECDCC2C3F0000003F0000003F76
:105840000A0000003C0A560A700A8B0AA60AC10A1E
:10585000DD0AF80A150B310B4E0B6B0B880BA50BF1
:10586000C30BE10B000C1E0C3D0C5D0C7C0C9C0C66
:10587000BD0CDD0CFE0C1F0D410D630D850DA80D3B
:10588000CB0DEE0D120E360E5A0E7F0EA40ECA0E62
:10589000EF0E160F3C0F630F8B0FB30FDB0F0310D0
:1058A0002C1056108010AA10D41000112B11571173
:1058B0008311B011DE110B12391268129712C71240
:1058C000F712271359138A13BC13EF13221455141C
:1058D0008914BE14F31429155F159515CD150416FA
:1058E0003D167616AF16E91624175F179B17D817C3
:1058F000151852189118CF180F194F199019D1195E
:10590000131A561A9A1ADE1A221B681BAE1BF51BB5
:105910003D1C851CCE1C181D621DAD1DF91D461EAB
:10592000941EE21E311F811FD11F23207520C82025
:105930001C217121C7211D227422CD222623802300
:10594000DA2336249324F1244F25AF250F26712620
:10595000D32636279B2700286728CE283629A0295A
:105960000B2A762AE32A512BC02B302CA12C132D85
:10597000862DFB2D712EE82E602FD92F5330CF307E
:105980004C31CA314A32CA324C33D0335434DA340F
:105990006235EA35743600378D371B38AA383C3902
:1059A000CE39623AF83A8F3B273CC13C5D3DFA3D27
:1059B000983E383FDA3F7E402341CA4172421C4341
:1059C000C84376442545D64589463D47F447AC480B
:1059D0006649224ADF4A9F4B614C244DEA4DB14E45
:1059E0007B4F46501451E351B55289535E5436559E
:1059F0001156ED56CB57AC588F59745A5C5B465CC8
:105A0000325D215E125F0560FB60F361EE62EB6365
:105A1000EB64ED65F266FA670469116A206B336C1A
:105A2000486D5F6E7A6F9770B871DB7201742A757A
:105A300056768577B778EC79247B5F7C9D7DDF7E19
:105A400024806C810000700000000024000000022F
:105A50000003000000650054FFEF0000FA80000B17
:105A600012820001030C30C30E8C8CE914D5400265
:105A700013710F8E3883F8833000F883258EF883F6
:105A80003000F883FFFFFFFF0FFEA9D624000400BB
:105A90001A8279A10000003CFFFF00000010000006
:105AA00038836FA2003E03304000000002CAE309C1
:105AB0003E800000200000000000000040000000C8
:105AC00060000000000C0000000C186E0000069240
:105AD0000A16C0DFFFFF0256FD8CD377FFE1C496A4
