:020000040800F2
:10000000E007002029020008490800082D07000821
:100010004508000813050008A511000800000000AD
:100020000000000000000000000000003D09000882
:100030000906000800000000D9080008FD0A0008B1
:10004000430200084302000843020008430200087C
:10005000430200084302000843020008430200086C
:10006000430200084302000843020008430200085C
:10007000430200084302000843020008430200084C
:10008000430200084302000843020008430200083C
:10009000430200084302000843020008430200082C
:1000A000430200088D0C00084302000843020008C8
:1000B000430200084302000843020008430200080C
:1000C00043020008430200084302000843020008FC
:1000D00043020008430200084302000843020008EC
:1000E00043020008430200084302000843020008DC
:1000F00043020008430200084302000843020008CC
:100100004302000843020008CD0C00084302000827
:1001100043020008430200080D0D0008710D00089D
:10012000430200084302000843020008430200089B
:10013000430200084302000843020008430200088B
:10014000430200084302000843020008430200087B
:10015000430200084302000843020008430200086B
:10016000430200084302000843020008430200085B
:10017000430200084302000843020008430200084B
:10018000430200084302000800F002F800F03CF8C7
:100190000AA090E8000C82448344AAF10107DA45E2
:1001A00001D100F031F8AFF2090EBAE80F0013F0F8
:1001B000010F18BFFB1A43F0010318475449000010
:1001C00074490000103A24BF78C878C1FAD85207A1
:1001D00024BF30C830C144BF04680C6070470000C1
:1001E0000023002400250026103A28BF78C1FBD840
:1001F000520728BF30C148BF0B6070471FB503F0DE
:1002000057FD1FBD10B510BD00F04EF91146FFF7A8
:10021000F5FF02F0FFFB00F06CF903B4FFF7F2FF0B
:1002200003BC00F06FF90000094880470948004707
:10023000FEE7FEE7FEE7FEE7FEE7FEE7FEE7FEE796
:10024000FEE7FEE704480549054A064B70470000F3
:10025000010B000889010008E0010020E0070020F0
:10026000E0030020E003002010B54C1084EA5304A2
:1002700004D54042C1F1000138BF491E1B4204D5DC
:100280005242C3F1000338BF5B1E00F048F814F07F
:10029000804F04D04042C1F1000138BF491E14F024
:1002A000004F04D05242C3F1000338BF5B1E10BDA3
:1002B00040EA010310B59B070FD1042A0DD310C8E3
:1002C00008C9121F9C42F8D020BA19BA884201D935
:1002D000012010BD4FF0FF3010BD1AB1D30703D07D
:1002E000521C07E0002010BD10F8013B11F8014B33
:1002F0001B1B07D110F8013B11F8014B1B1B01D14F
:10030000921EF1D1184610BD02F0FF0343EA03220A
:1003100042EA024200F07CB870477047704753EAE7
:10032000020C00F069802DE9F04B4FF00006002B25
:100330001FBFB3FA83F503FA05F424FA05F65E400D
:1003400012BF1643B2FA82F502FA05F4C5F1200590
:100350001EBF22FA05FC44EA0C04203556EA044C80
:100360004FEA144418BF641C4FF000084FF0000916
:10037000904271EB030C39D3002919BFB1FA81F710
:1003800001FA07F6B0FA80F700FA07F6C7F120077E
:100390001EBF20FA07FC46EA0C062037B6FBF4FC29
:1003A000A7EB0507103F07F01F0BCBF120060CFA57
:1003B0000BFB2CFA06F644BFB3460026202FA4BF41
:1003C0005E464FF0000B5BEA060C08BF4FF0010BD6
:1003D00019EB0B09ABFB027C48EB0608C01B06FBC4
:1003E00002CC0BFB03CC71EB0C01C1E70B460246C0
:1003F00041464846BDE8F08B13B54FF000004FF082
:100400000001AFF30080BDE81C4070474FF00002D0
:100410000429C0F0128010F0030C00F01B80CCF116
:10042000040CBCF1020F18BF00F8012BA8BF20F884
:10043000022BA1EB0C0100F00DB85FEAC17C24BFD8
:1004400000F8012B00F8012B48BF00F8012B704782
:100450004FF0000200B5134694469646203922BF5D
:10046000A0E80C50A0E80C50B1F12001BFF4F7AFA8
:10047000090728BFA0E80C5048BF0CC05DF804EB8A
:10048000890028BF40F8042B08BF704748BF20F8F8
:10049000022B11F0804F18BF00F8012B70470000AD
:1004A000004870477C0100207546FFF7F9FFAE4613
:1004B00005006946534620F00700854618B020B570
:1004C000FFF7C0FEBDE820404FF000064FF00007E8
:1004D0004FF000084FF0000B21F00701AC46ACE8EC
:1004E000C009ACE8C009ACE8C009ACE8C0098D4659
:1004F000704710B50446AFF300802046BDE81040B9
:10050000FFF78BBE01491820ABBEFEE726000200B4
:10051000704700BFFEE7000000B500F083F8034617
:1005200016480088181A02B2B2F5004F02DB501CC0
:1005300002B206E012F5004F03DC4FF6FF701044E4
:1005400002B20F48006810440D4908600B48038050
:1005500000EE102AF8EEC00A9FED0A1A80EE810A1A
:10056000DFED090A20EE200AF3EE0E0A80EE201AD3
:10057000064880ED001A90ED000A00BD4000002002
:100580003C0000200000FA44FF5FEA4644000020DF
:1005900000B500F04DF8034616480088181A02B25C
:1005A000B2F5004F02DB501C02B206E012F5004F1C
:1005B00003DC4FF6FF70104402B20F48006810448D
:1005C0000D4908600B48038000EE102AF8EEC00ABF
:1005D0009FED0A1A80EE810ADFED090A20EE200A5B
:1005E000F3EE0E0A80EE201A064880ED001A90ED18
:1005F000000A00BD500000204C0000200000FA441A
:10060000FF5FEA46480000207047000000200149D3
:1006100048627047000001400020014908607047AF
:10062000240C00400149496A08B2704700000140AB
:100630000149096808B27047240C0040F0B50A4629
:1006400000210023002400BF3DE0012505FA01F34D
:10065000156805EA03049C4234D105684F0003265F
:10066000BE40B543056015794E00B5400668354378
:1006700005601579012D02D01579022D16D18568F6
:100680004F000326BE40B543856055794E00B54006
:10069000866835438560456801268E40B5434560D0
:1006A000456896798E40B6B235434560C5684F00BF
:1006B0000326BE40B543C560D5794E00B540C66837
:1006C0003543C560491C1029BFD3F0BDF0B50023E8
:1006D00000244D07ED0E02FA05F3CE1000F12005BF
:1006E00055F826504E07F70E0F26BE40B543CF10E3
:1006F00000F1200646F82750CE1000F1200555F8ED
:10070000265045EA0304CE1000F1200545F82640A6
:10071000F0BD0246002013690B400BB1012000E040
:1007200000207047418370470183704700BFFEE798
:1007300080ED000AC0ED010A80ED021ADFED0C1A0F
:10074000C0ED031ADFED0A1AC0ED041ADFED081A36
:10075000C0ED051ADFED061AC0ED061ADFED041A2A
:10076000C0ED071ADFED021AC0ED081A704700004D
:100770000000000008B500200090012269467520A5
:1007800002F0D1F99DF80000702801D0002008BDCA
:100790000120FCE738B5684602F03CFB044614B182
:1007A0004FF0FF3038BD782003F0BCF8044614B198
:1007B0006FF00100F6E7782002F012FA044614B157
:1007C0006FF00200EEE7642003F05EF8044614B117
:1007D0006FF00300E6E700F0B3FF044614B16FF0DA
:1007E0000400DFE7164802F0D9F8054601F01EF9CB
:1007F000044614B16FF00500D4E740F2731000F026
:1008000047FE044614B16FF00600CBE7642001F008
:100810003DF8044614B16FF00700C3E703F050F948
:10082000044614B16FF00800BCE7012002F028FF75
:10083000044614B16FF00900B4E70020B2E70000ED
:10084000DC00002000BFFEE77047000070B500210B
:1008500000230F22C4781CB3174C246804F4E0640E
:10086000C4F5E064C4F30721C1F10404E3B20A4112
:1008700044789C40E1B28478144021430C07210E57
:100880000E4C05786155047804F01F050124AC4036
:1008900005786D11AD0005F1E025C5F8004109E0CE
:1008A000047804F01F050124AC40054D067876114C
:1008B00045F8264070BD00000CED00E000E400E0CB
:1008C00080E100E002490143024A116070470000E4
:1008D0000000FA050CED00E07047000029B1064A5F
:1008E00012680243044B1A6004E0034A1268824310
:1008F000014B1A60704700003038024029B1064AA7
:1009000012680243044B1A6004E0034A12688243EF
:10091000014B1A60704700004038024029B1064A76
:1009200012680243044B1A6004E0034A12688243CF
:10093000014B1A60704700004438024070472DE9AF
:10094000F04105460F4614461E4601F0CDFF00213A
:1009500041EA4501C8B201F093FF01F0FBFF20B16D
:1009600001F0E2FF0120BDE8F081384601F088FF88
:1009700001F0F0FF01F0B8FF012101EB4501C8B221
:1009800001F07EFF01F0E6FF0CE001F055FF307052
:10099000012C02D101F036FF01E001F013FF601ECF
:1009A000C4B2761C002CF0D101F0BEFF0020DAE7C3
:1009B0002DE9F04105460E461746984601F094FF92
:1009C000002141EA4501C8B201F05AFF01F0C2FF1F
:1009D00020B101F0A9FF0120BDE8F081304601F00F
:1009E0004FFF01F0B7FF00240CE018F8040001F0FD
:1009F00047FF01F0AFFF18B101F096FF0120EBE7D0
:100A0000601CC4B2BC42F0DB01F08EFF0020E3E7C3
:100A10000CB50020019000903448006840F480300C
:100A20003249086000BF3148006800F4003000908F
:100A30000198401C0190009818B90198B0F5A04F9A
:100A4000F1D12A48006800F4003010B10120009074
:100A500001E0002000900098012846D12348403052
:100A6000006840F08050214940310860204800680B
:100A700040F440401E4908601C48083000681B498B
:100A8000083108600846006840F4004008600846E5
:100A9000006840F4A05008601648091F0860081F4D
:100AA000006840F08070091F086000BF0F480068B0
:100AB00000F000700028F9D040F205700E4908607F
:100AC0000A480830006820F003000849083108602F
:100AD0000846006840F00200086000BF0348083084
:100AE000006800F00C000828F8D10CBD0038024066
:100AF0000070004008544007003C0240704700006E
:100B000010B51548006840F4700013490860134898
:100B1000006840F001001149086000200F490831C9
:100B200008600E4800680E4908400C4908600D48EE
:100B3000091D0860081F006820F48020091F086054
:100B4000002006490C310860FFF762FF4FF000609B
:100B500001498039086010BD88ED00E0003802408E
:100B6000FFFFF6FE10300024F0B50C4615460021BC
:100B70000022068C4FF6FE773E400684018B028CE5
:100B80004FF60C7631407E1C06EA03162E433143A5
:100B90004FF6F576324044F0010632430183028479
:100BA000F0BDF0B50C461546002100220026078C4A
:100BB0004FF6EF7C07EA0C070784018B028C4FF697
:100BC000FF7707EA041640F6FF4739404FF6FF77F4
:100BD00007EA033739434FF6FF7707EA052739431A
:100BE0004FF65F773A4046F010073A43018302849C
:100BF000F0BDF0B50C461546002100220026078CFA
:100C00004FF6FF6C07EA0C070784818B028C4FF6C6
:100C1000FF7707EA04264FF60C7739404FF6FF7747
:100C200007EA03172F4339434FF2FF573A4046F480
:100C300080773A4381830284F0BDF0B50C461546B7
:100C4000002100220026078C4EF6FF7C07EA0C07E5
:100C50000784818B028C4FF6FF7707EA043640F653
:100C6000FF4739404FF6FF7707EA052739434FF62C
:100C7000FF7707EA0337394345F6FF773A4046F4F2
:100C800080573A4381830284F0BD000010B50121F2
:100C90000C4800F020F998B10A48008800F01000D4
:100CA00028B109480068401E0749086004E006486A
:100CB0000068401C044908600121024800F0CCF89B
:100CC00010BD000000000140A000002010B501216F
:100CD0000C4800F000F998B10A48008800F01000B4
:100CE00028B109480068401E0749086004E006482A
:100CF0000068401C044908600121024800F0ACF87B
:100D000010BD0000000C0040A400002010B501211F
:100D1000124800F0E0F801281ED111480088002890
:100D200004DD0F480088401E0D4908800D4800680A
:100D3000401C0C490860084600680B49884207D1EE
:100D400000200849086009480068401C07490860FD
:100D50000121024800F080F810BD000000100040A2
:100D6000920000209800002040420F009C000020CC
:100D700010B50121284800F0AEF8012846D12748D7
:100D80000088401C2549088008460088B0F57A7F15
:100D900004D10020088001202149087021480088E2
:100DA000401C2049088008460088C82808D1002037
:100DB000088001201C490870FFF7AEFBFFF7E8FB35
:100DC0001A480088401C1949088008460088642891
:100DD0000AD10020088016480088002804DD144845
:100DE0000088401E1249088012480068401C1149C2
:100DF0000860084600681049884207D100200D4964
:100E000008600E480088401C0C49088001210248F7
:100E100000F022F810BD000000140040AA000020DD
:100E2000AD000020A8000020AC00002094000020AD
:100E3000900000208C0000209F8601008800002088
:100E400021B1028842F08002028004E002884FF65D
:100E50007F731A4002807047CA430282704721B1F3
:100E6000028842F00102028004E002884FF6FE731D
:100E70001A400280704731B1B0F8442042F4004279
:100E8000A0F8442005E0B0F84420C2F30E02A0F818
:100E900044207047F0B50C4615461E46002100223E
:100EA00000230189028B038C4FF6F87739402143E8
:100EB0004FF6FC473A4040F201173A434FF6DD77D0
:100EC0003B404FF6FF7707EA06172F433B4301816C
:100ED00002830384F0BD30B50246002000230024C5
:100EE000158A05EA0103958905EA010413B10CB1DD
:100EF000012000E0002030BD70B505460C4620887A
:100F000050B92389A28861882846FFF72DFEE18821
:100F1000284600F0D8F825E0208804280AD1238943
:100F2000A28861882846FFF73CFEE188284600F049
:100F3000D3F817E0208808280AD12389A28861887D
:100F40002846FFF756FEE188284600F0D2F809E06F
:100F50002389A28861882846FFF76FFEE18828462A
:100F600000F0D0F870BD1AB183890B43838102E091
:100F700083898B438381704770B50024002200234E
:100F8000058C4FF6FE7635400584028C8388048BF1
:100F90004FF68F752C40B51E2C400D882C43751EC6
:100FA0002A408D892A434D882A43104DA84202D0F9
:100FB0000F4DA84213D14FF6F7752A40CD892A4329
:100FC0004FF6FB752A408D882A434FF6FF652B406C
:100FD0004FF6FF552B400D8A2B434D8A2B438380C0
:100FE00004838D684563028470BD000000000140E9
:100FF000000401400A460021018B4FF6F7731940A7
:10100000114301837047000070B5002400220023C3
:10101000058C4FF6EF7635400584028C8388048B6F
:1010200048F6FF752C404FF6FF452C400D884FF6D3
:10103000FF7606EA05252C434FF6DF752A408D8999
:1010400006EA05152A434D8806EA05152A43154D7B
:10105000A84202D0144DA8421DD14FF67F752A40F8
:10106000CD894FF6FF7606EA05152A434FF6BF7580
:101070002A408D8806EA05152A434FF6FF352B4096
:101080004FF2FF752B400D8A06EA85052B434D8AEA
:1010900006EA85052B43838004838D68856302847B
:1010A00070BD000000000140000401400A4600211C
:1010B000018B4FF2FF7319404FF6FF7303EA0223CF
:1010C000194301837047028B4FF6F3731A40028372
:1010D000028B0A4302837047028B4FF2FF331A40A0
:1010E0000283028B4FF6FF7303EA01231A43028344
:1010F0007047828B4FF6F3731A408283828B0A43C8
:1011000082837047828B4FF2FF331A408283828B37
:101110004FF6FF7303EA01231A43828370470000EE
:1011200000220288184B98420ED0184B98420BD0E0
:10113000B0F1804F08D0164B984205D0154B98421D
:1011400002D0154B984204D14FF68F731A404B884A
:101150001A43124B984207D0114B984204D04FF6D5
:10116000FF431A400B891A4302804B68C3620B8805
:101170000385054B984202D0044B984201D18B7AEB
:101180000386012383827047000001400004014070
:101190000004004000080040000C00400010004027
:1011A0000014004000BFFEE72DE9F0432DED048B55
:1011B0008BB00746884615460026B14686494968E1
:1011C000087801AB03220D21FFF7B9FB40B10DB147
:1011D00000BF00BF07200BB0BDEC048BBDE8F0835F
:1011E0000DB100BF00BF00243CE001A8005D70B35A
:1011F00001A8005D401E794931F8100000EE100A88
:10120000B8EE400A02A800EB840080ED000A02A8B4
:1012100000EB840090ED000ADFED710A20EE200A59
:1012200002A800EB840080ED000A02A800EB840015
:10123000D0ED000A6B4890ED010AB8EE400A80EE4E
:10124000801A02A800EB840080ED001A09E0FFE795
:101250009FED650A02A800EB840080ED000A4FF0C4
:101260000109641C032CC0DB4FF00109B9F1000F28
:1012700048D10DB100BF00BF002440E058F8240061
:1012800057F82410401A00EE100AB8EEC00A08A859
:1012900000EB840080ED000A1DB100BF00BF00BF5D
:1012A00000BF08A800EB8400D0ED000A02A800EB04
:1012B000840090ED001A80EE810AF7EE000A30EE0D
:1012C000600A05A800EB840080ED000A0DB100BFA4
:1012D00000BF05A800EB840090ED000AB0EEC00A44
:1012E0004048D0ED090AB4EEE00AF1EE10FA05DD4F
:1012F0000DB100BF00BF0120A0400643641C032CB9
:10130000BCDB43E0374890ED070ADFED350A20EEFD
:10131000208A90ED080ADFED320A60EE208A2DB1B6
:1013200000BF00BF00BF00BF00BF00BF00242BE014
:1013300058F8240057F82410401A00EE100AB8EEAE
:10134000C00A08A800EB840080ED000A0DB100BFC0
:1013500000BF08A800EB840090ED000AB4EEC80AB4
:10136000F1EE10FA09D308A800EB840090ED000A12
:10137000B4EEE80AF1EE10FA05DD0DB100BF00BFD2
:101380000120A0400643641C032CD1DB0EBB154892
:1013900090ED0A0ADFED120A20EE209A0DB100BF8F
:1013A00000BF002413E057F8240000EE100AB8EE46
:1013B000C00AB0EEC00AB4EEC90AF1EE10FA05DDBB
:1013C0000DB100BF00BF0120A0400643641C032CE8
:1013D000E9DB3046FFE60000B0000020183D0008C1
:1013E00000008047E83C00080000000010B502F053
:1013F00041FB01F02DF802F02FFC02F001FC00F09F
:101400002FFDFFF709F9FFF701F901F039FB01F0B2
:101410006FFBFFF7AFF9012802D10349087002E022
:1014200000200149087010BD090000200349088010
:1014300000BF024909880029FBDC704790000020AA
:101440000349088000BF024909880029FBDC704776
:101450009200002038B5044664B120208DF80000C9
:1014600028208DF8010030208DF8020038208DF8FA
:10147000030004E0A32204216846FEF745FF6A4604
:10148000042140F69E2002F0B5FA01F081FE38BD3D
:101490003EB5044602208DF80000CA208DF80100F8
:1014A000E3208DF8020009208DF803006A4604212C
:1014B000682002F09FFAA3208DF8000004F040009D
:1014C00048B1C0208DF80100C8208DF80200C2206C
:1014D0008DF8030006E0A3208DF801008DF80200CE
:1014E0008DF8030004F4C07048B1C4208DF80400E6
:1014F000CC208DF80500C6208DF8060006E0A3205C
:101500008DF804008DF805008DF80600A3208DF8F5
:1015100007008DF808008DF809006A460A2140F698
:10152000A72002F067FA04F0030018B120208DF81C
:10153000000002E0D8208DF800006A46012140F644
:10154000B62002F057FA04F0200018B1012000F094
:10155000ADF802E0002000F0A9F804F4C07008B370
:1015600004F4807060B1B2208DF800008B208DF8FB
:101570000100B6208DF802009B208DF803000BE0DF
:10158000B0208DF8000080208DF80100B4208DF887
:10159000020090208DF803006A46042140F6A22044
:1015A00002F028FA04F0010020B3F8208DF80000C2
:1015B0006A4601214FF40B6002F01CFAFA21072061
:1015C00000F048FB072000F00FFB012000F02FFB8C
:1015D000642000F01FFC4FF4FA7000F02EFCC821CC
:1015E000304800F0BFFA282000F0D8FA0A2000F0B6
:1015F000E8FA08E0D8208DF800006A4601214FF48F
:101600000B6002F0F7F904F0020018B1D9208DF850
:10161000000002E0D8208DF800006A46012140F267
:101620003D7002F0E7F904F0040018B1012000F069
:1016300069F802E0002000F065F804F0100018B12D
:101640000120FFF707FF02E00020FFF703FF44F04F
:1016500008001549488101F09BFD0020124988735C
:1016600004F0400018B10846807B801D887304F4A4
:10167000C07020B10C48807B801D0B49887304F03A
:10168000140020B10848807B10300749887304F0AB
:10169000030020B10448807B001D034988730020AB
:1016A0003EBD000009E3CA02540100203EB50446D5
:1016B0006CB10EA1D1E900208968CDE9002002912A
:1016C0006A4609214FF4976002F094F93EBD0AA2E0
:1016D000D2E900109268CDE9010200916A46092121
:1016E0004FF4976002F086F9F0E70000B8AAB38DD6
:1016F000B4980D355D000000B8AAAAAAB088C3C589
:10170000C700000038B5044664B1C0208DF8000061
:10171000C2208DF80100C4208DF80200C6208DF88B
:10172000030004E08B2204216846FEF7EDFD6A46C3
:10173000042140F6982002F05DF901F029FD38BD42
:1017400010B5C8234FF48062024940F6F63001F02C
:10175000F1FB10BD183F000870B588B0064601A81F
:1017600001F09CFABDF804000021C90341EA50458C
:10177000C40300BF4448007A00F0030056F820007C
:1017800005904148007A00F0040010B105984042ED
:1017900005903D48007AC0F3C10056F8200006903D
:1017A0003948007A00F0200010B1069840420690B7
:1017B0003548007AC0F3811056F82000079032486F
:1017C000008900F4807010B1079840420790059896
:1017D000C117A0FB042301FB043100FB05108100AD
:1017E00041EA927005900698C117A0FB042301FB03
:1017F000043100FB0510810041EA927006900798C1
:10180000C117A0FB042301FB043100FB051081007C
:1018100041EA927007900598000E8DF8080005982F
:10182000000C8DF809000598000A8DF80A0005984B
:10183000C0B28DF80B000698000E8DF80C000698CB
:10184000000C8DF80D000698000A8DF80E00069821
:10185000C0B28DF80F000798000E8DF810000798A1
:10186000000C8DF811000798000A8DF812000798F7
:10187000C0B28DF8130002AA0C214FF4257002F0BB
:10188000B9F808B070BD00005401002030B585B033
:10189000044616A207CA02AB07C3C82C03DD4FF0EB
:1018A000FF3005B030BDC82090FBF4F0401E85B27B
:1018B000280A8DF80000E8B28DF801006A4602217E
:1018C00040F2162002F096F810B14FF0FF30E8E732
:1018D00002AA0C2140F6C12002F08CF810B14FF0A2
:1018E000FF30DEE7044884810020DAE7FEF2ABC473
:1018F000AAF1DFDFBBAFDFDF540100201FB50446D4
:101900004848007A00F0030054F820000190454850
:10191000007A00F0040010B1019840420190414863
:10192000007AC0F3C10054F8200002903D48007ACC
:1019300000F0200010B10298404202903948007A2D
:10194000C0F3811054F8200003903648008900F459
:10195000807010B10398404203903349019880FB96
:101960000101800F40EA810001902F49029880FB1D
:101970000110820042EA917002902B49039880FB8B
:101980000110820042EA917003900198000E8DF8D8
:1019900000000198000C8DF801000198000A8DF8F4
:1019A00002000198C0B28DF803006A4604214FF48A
:1019B000747002F01FF818B14FF0FF3004B010BD82
:1019C0000298000E8DF800000298000C8DF80100BE
:1019D0000298000A8DF802000298C0B28DF8030048
:1019E0006A4604214FF4757002F004F810B14FF00C
:1019F000FF30E3E70398000E8DF800000398000C19
:101A00008DF801000398000A8DF802000398C0B217
:101A10008DF803006A4604214FF4767001F0EAFF66
:101A2000CCE700005401002009E3CA0210B586B0DB
:101A3000044647A00068039046A00068029046A0B4
:101A40000068019045A00068009004F0030003A91D
:101A5000085C8DF8140003A8C4F3C101405C8DF844
:101A6000150003A8C4F38111405C8DF8160004F042
:101A7000030002A9085C8DF8100002A8C4F3C1019C
:101A8000405C8DF8110002A8C4F38111405C8DF810
:101A9000120005AA032140F2264001F0ABFF18B165
:101AA0004FF0FF3006B010BD04AA032140F22A40D7
:101AB00001F0A0FF10B14FF0FF30F3E7019805905F
:101AC0000098049004F0040058B19DF8140040F010
:101AD00001008DF814009DF8100040F001008DF811
:101AE000100004F0200058B19DF8150040F00100EE
:101AF0008DF815009DF8110040F001008DF81100DF
:101B000004F4807058B19DF8160040F001008DF883
:101B100016009DF8120040F001008DF8120005AA91
:101B200003214FF4886001F065FF10B14FF0FF30E2
:101B3000B8E704AA032140F2314001F05BFF10B185
:101B40004FF0FF30AEE7064804810020AAE700000E
:101B50004CCD6C000CC92C0036567600264666002B
:101B600054010020F8B505460E464FF47A7095FBF7
:101B7000F0F000FB06F4200E8DF80000200C8DF82C
:101B80000100200A8DF80200E0B28DF803006A46D9
:101B900004214FF4AE7001F02DFFF8BD38B50446B6
:101BA000052094FBF0F084B220128DF80000E0B222
:101BB0008DF801006A4602214FF4AD7001F01AFF62
:101BC00038BD38B50446052094FBF0F084B22012ED
:101BD0008DF80000E0B28DF801006A4602214FF452
:101BE000AC7001F007FF38BD38B504460020009006
:101BF00004F0010020B19DF8000040F0300000909A
:101C000004F0020020B19DF8000040F00C000090AC
:101C100004F0040020B19DF8000040F003000090A3
:101C20006A4601214FF4A47001F0E4FE38BD38B5D6
:101C30000446012C01DA012402E0042C00DD042416
:101C4000601EC0B200906A46012140F24F1001F0C0
:101C5000D1FE38BDF0B52DED028B83B006460F46A0
:101C600006F0070010B1B7F5C86F05DD4FF0FF3083
:101C700003B0BDEC028BF0BD00EE107AB8EE400A66
:101C8000DFED5B0A80EE208A01A800F0E1FF9DF8FD
:101C90000400022806D0042817D0082828D01028CD
:101CA0004CD138E09FED530A28EE000ABCEEC00A82
:101CB00010EE100A84B29FED500A28EE000ABCEE26
:101CC000C00A10EE100A85B23BE09FED4C0A28EEE8
:101CD000000ABCEEC00A10EE100A84B29FED480A5A
:101CE00028EE000ABCEEC00A10EE100A85B228E009
:101CF0009FED440A28EE000ABCEEC00A10EE100A5E
:101D000084B29FED410A28EE000ABCEEC00A10EE34
:101D1000100A85B215E09FED3D0A28EE000ABCEEE0
:101D2000C00A10EE100A84B29FED390A28EE000AAC
:101D3000BCEEC00A10EE100A85B202E04FF0FF3090
:101D400096E700BF20128DF80800E0B28DF8090078
:101D500028128DF80A00E8B28DF80B0006F0010099
:101D6000A0B102AA02214FF4EA7001F043FE10B1C3
:101D70004FF0FF307CE70DF10A0202214FF4927020
:101D800001F038FE10B14FF0FF3071E706F00200AD
:101D9000A0B102AA02214FF4EC7001F02BFE10B1A9
:101DA0004FF0FF3064E70DF10A0202214FF4947006
:101DB00001F020FE10B14FF0FF3059E706F00400AB
:101DC000A0B102AA02214FF4EE7001F013FE10B18F
:101DD0004FF0FF304CE70DF10A0202214FF49670EC
:101DE00001F008FE10B14FF0FF3041E700203FE75F
:101DF00000004843000080460000404600000046C6
:101E00000000C0450000804500004045000000453E
:101E10000000C04438B50446052094FBF0F085B2BC
:101E200028128DF80000E8B28DF801006A46022100
:101E30004FF4EF7001F0DEFD38BD38B504460520E3
:101E400094FBF0F085B228128DF80000E8B28DF80E
:101E500001006A4602214FF4ED7001F0CBFD38BD60
:101E600000B587B00020ADF81000ADF812004FF6B5
:101E7000FF7005900020ADF8180004A93548FFF761
:101E80004FF90020ADF81000ADF812004FF6FF70CA
:101E900005900020ADF8180004A92F48FFF740F97D
:101EA00000231A4603212B48FEF7F4FF00231A46AD
:101EB00003212948FEF7EEFF0020ADF80400ADF83D
:101EC00006000120ADF808000020ADF80A00062049
:101ED000ADF80C0001A92048FFF70EF80420ADF87A
:101EE00004000220ADF808000020ADF80600ADF8AF
:101EF0000A000620ADF80C0001A91748FEF7FCFF08
:101F000001211548FEF7ABFF0020ADF80400ADF845
:101F100006000120ADF808000020ADF80A000620F8
:101F2000ADF80C0001A90B48FEF7E6FF0420ADF860
:101F300004000220ADF8080001A90648FEF7DCFF06
:101F400001210448FEF78BFF01210248FEF793FFB1
:101F500007B000BD00000140000C00402DE9F04F2B
:101F6000ADF21C4D06460D469246984600240020D0
:101F7000049001208DF8180000208DF81900FE4A09
:101F80001268517DFC4A5268107806AB0222FEF7B7
:101F90000FFD20B1601E0DF21C4DBDE8F08FC82072
:101FA000FFF744FA00208DF81800F34A1268517CBC
:101FB000F14A5268107806AB0122FEF7F9FC10B125
:101FC0004FF0FF30E7E7EC4A12685179EA4A52686D
:101FD000107806AB0122FEF7EBFC10B14FF0FF309A
:101FE000D9E7E54A1268517DE34A5268107806AB9A
:101FF0000122FEF7DDFC10B14FF0FF30CBE7DE4AE7
:102000001268917EDC4A5268107806AB0122FEF716
:10201000CFFC10B14FF0FF30BDE7D74A12681179FD
:10202000D54A5268107806AB0122FEF7C1FC10B108
:102030004FF0FF30AFE70C208DF81800CE4A126841
:102040001179CD4A5268107806AB0122FEF7B0FC38
:1020500010B14FF0FF309EE70F20FFF7E7F9C648B9
:10206000806A407A8DF81800C34A12689178C24A93
:102070005268107806AB0122FEF79AFC10B14FF0BF
:10208000FF3088E7BC48806A007A8DF81800BA4AA9
:1020900012685178B84A5268107806AB0122FEF7F0
:1020A00087FC10B14FF0FF3075E7BAF1000F07D091
:1020B000B148806A807A40F0E0008DF8180004E0B2
:1020C000AD48806A807A8DF81800AB4A1268917921
:1020D000A94A5268107806AB0122FEF769FC10B1DC
:1020E0004FF0FF3057E7BAF1000F07D0A248806ADF
:1020F000C07A40F0E0008DF8180003E09F48C07AF5
:102100008DF818009C4A1268D1799B4A5268107861
:1021100006AB0122FEF74CFC10B14FF0FF303AE75E
:1021200096498889FFF782F940208DF81800924A75
:1021300012681179904A5268107806AB0122FEF7B6
:1021400037FC10B14FF0FF3025E778208DF81800EC
:10215000894A12685179884A5268107806AB012280
:10216000FEF726FC10B14FF0FF3014E70020B060FE
:1021700070603060A86068602860B8F1000F01D01E
:1021800000BF00BFA2E07D49888DFFF74FF97A4A72
:102190001268117B784A5268107806AB0222FEF76B
:1021A000CEFB10B14FF0FF30F5E69DF819009DF819
:1021B000181040EA012005900C21059890FBF1F0E1
:1021C00000F0FF096D48807B001B484504DA6B482E
:1021D000807B001B00F0FF0909EB4900830004939A
:1021E000049BDAB2644B1B68597B634B5B681878BD
:1021F00006ABFEF7A4FB10B14FF0FF30CBE6002793
:10220000BB4660E006A9781C085CC95D40EA012075
:1022100000B2ADF8080006A9F81C095C06AAB81CB3
:10222000105C41EA002000B2ADF80A0006A9781D52
:10223000095C381D105C41EA002000B2ADF80C00CA
:10224000BDF90810286808442860BDF90A106868BC
:1022500008446860BDF90C10A8680844A86006A985
:10226000F81D095CB81D105C41EA002000B2ADF811
:10227000000006A907F10900095C401E105C41EA54
:10228000002000B2ADF8020006A907F10B00095CBE
:10229000401E105C41EA002000B2ADF80400BDF918
:1022A0000010306808443060BDF9021070680844BE
:1022B0007060BDF90410B0680844B0600C370BF1D1
:1022C000010000F0FF0BCB459CDB4C442B48807B8E
:1022D000A0423FF758AFB8F1000F01D000BF00BFD8
:1022E00000208DF81800244A12685179224A526859
:1022F000107806AB0122FEF75BFB10B14FF0FF3008
:1023000049E61E48D0F800C03068C117090441EA08
:1023100010410204CDE90021624600230098FDF738
:10232000A3FF2246E317CDE90201FDF79DFF3060D0
:102330001248D0F800C07068C117090441EA104281
:102340000004CDE90002624600230199FDF78CFFED
:102350002246E317CDE90201FDF786FF70600748CA
:10236000D0F800C0B068C117090441EA1041020466
:10237000CDE90021624603E0B0000020E83C0008FF
:1023800000230098FDF770FF2246E317CDE9020114
:10239000FDF76AFFB0602D48D0F804C02868C11767
:1023A000090441EA10420004CDE90002624600231C
:1023B0000199FDF759FF2246E317CDE90201FDF728
:1023C00053FF28602148D0F804C06868C117090489
:1023D00041EA10410204CDE9002162460023009841
:1023E000FDF742FF2246E317CDE90201FDF73CFF6E
:1023F00068601648D0F804C0A868C117090441EA0B
:1024000010420004CDE90002624600230199FDF765
:102410002BFF2246E317CDE90201FDF725FFA86057
:10242000A868002804DDA868A0F58030A86003E053
:10243000A86800F58030A860B8F1000F03D000BF95
:1024400000BF00BF00BF0020A5E50000E83C000879
:102450001CB5C020009002208DF8040003208DF8E8
:10246000050000208DF8060001208DF80700694660
:102470004B48FEF7E3F83020009001208DF804006F
:1024800003208DF8050000208DF8060001208DF84E
:10249000070069464348FEF7D1F803200090012069
:1024A0008DF8040003208DF8050000208DF806004B
:1024B00001208DF8070069463B48FEF7BFF88020F1
:1024C000009001208DF8040003208DF80500002005
:1024D0008DF8060001208DF8070069463348FEF7A5
:1024E000ADF84FF48070009001208DF804000320B7
:1024F0008DF8050001208DF806008DF8070069466B
:102500002A48FEF79BF880212848FEF70DF94FF482
:1025100080712648FEF708F90320009002208DF80C
:10252000040003208DF8050000208DF8060001202E
:102530008DF8070069461A48FEF780F84FF440709E
:10254000009002208DF8040003208DF80500002083
:102550008DF8060001208DF8070069461048FEF747
:102560006DF8012208210E48FEF7B0F8012209217A
:102570000B48FEF7ABF8022200210948FEF7A6F847
:10258000022201210648FEF7A1F802220621044892
:10259000FEF79CF8022207210148FEF797F81CBDC0
:1025A0000000024000080240000402400010024007
:1025B0002DE9F0432DED028B8BB00746884615467A
:1025C0000026B1467A494968087801AB0322002108
:1025D000FEF7B5F940B10DB100BF00BF07200BB049
:1025E000BDEC028BBDE8F0830DB100BF00BF00243D
:1025F0003CE001A8005D70B301A8005D401E6D497C
:1026000031F8100000EE100AB8EE400A02A800EB04
:10261000840080ED000A02A800EB840090ED000A1F
:10262000DFED650A20EE200A02A800EB840080EDB1
:10263000000A02A800EB8400D0ED000A5F4890ED8C
:10264000000AB8EE400A80EE801A02A800EB84006F
:1026500080ED001A09E0FFE79FED590A02A800EBA0
:10266000840080ED000A4FF00109641C032CC0DBDC
:10267000B9F1000F44D10DB100BF00BF00243CE010
:1026800058F8240057F82410401A00EE100AB8EE4B
:10269000C00A08A800EB840080ED000A1DB100BF4D
:1026A00000BF00BF00BF08A800EB840090ED000A47
:1026B00002A800EB8400D0ED000A80EE201A05A8E5
:1026C00000EB840080ED001A0DB100BF00BF05A82B
:1026D00000EB840090ED000AB0EEC00A3748D0ED60
:1026E000060AB4EEE00AF1EE10FA05D20DB100BF11
:1026F00000BF0120A0400643641C032CC0DB31E076
:102700002E4890ED050ADFED2C0A20EE208A1DB13F
:1027100000BF00BF00BF00BF002421E058F8240024
:1027200057F82410401A00EE100AB8EEC00A08A8A4
:1027300000EB840080ED000A0DB100BF00BF08A8C7
:1027400000EB840090ED000AB4EEC80AF1EE10FA36
:1027500005D20DB100BF00BF0120A0400643641C9C
:10276000032CDBDB0EBB154890ED040ADFED120AEB
:1027700060EE208A0DB100BF00BF002413E057F8BF
:10278000240000EE100AB8EEC00AB0EEC00AB4EEA3
:10279000E80AF1EE10FA05DD0DB100BF00BF01201F
:1027A000A0400643641C032CE9DB304617E7000019
:1027B000B0000020183D000800008047E83C0008F9
:1027C0000000000010B54FF480710D48FDF7AAFF1E
:1027D0000820FEF735FE80210948FDF7A5FF0820F7
:1027E000FEF72EFE80210648FDF79CFF0820FEF72D
:1027F00027FE4FF480710248FDF796FF10BD0000E0
:102800000010024010B54FF480710A48FDF78CFFAC
:102810000420FEF715FE80210648FDF785FF042001
:10282000FEF70EFE80210348FDF77CFF0420FEF733
:1028300007FE10BD0010024070B50024002519E00D
:102840006006040E80210D48FDF76EFF0820FEF79C
:10285000F7FD4FF480710948FDF75BFF08B1601C7C
:10286000C4B280210548FDF75DFF0820FEF7E8FDB2
:10287000681CC5B2082DE3DB204670BD0010024085
:1028800070B50446002500BF29E004F0800028B19F
:102890004FF480711348FDF747FF04E04FF4807157
:1028A0001048FDF73FFF0820FEF7CAFD80210D48C4
:1028B000FDF73AFF0820FEF7C3FD80210948FDF728
:1028C00031FF072D04D14FF480710648FDF72CFF2E
:1028D0006006040E0820FEF7B3FD681CC5B2082D83
:1028E000D3DB70BD0010024010B54FF480710D486D
:1028F000FDF71AFF80210B48FDF716FF0420FEF7B5
:102900009FFD4FF480710748FDF70CFF0420FEF790
:1029100097FD80210348FDF705FF0420FEF790FD99
:1029200010BD00000010024010B54FF4807108483F
:10293000FDF7F8FE80210648FDF7F6FE0420FEF7BD
:102940007FFD4FF480710248FDF7EEFE10BD0000E0
:102950000010024010B54FF480710F48FDF7E4FEFF
:102960000820FEF76DFD80210B48FDF7DDFE0820F5
:10297000FEF766FD4FF480710748FDF7CAFE08B107
:10298000012400E0002480210348FDF7CBFE08204D
:10299000FEF756FD204610BD0010024070B50546FA
:1029A000284600F00FF80446E81C00F00BF844EA53
:1029B000C00084B2A81D00F005F844EA801084B27B
:1029C000204670BD014691F90020002A01DD00205B
:1029D0001EE091F90020002A01DA042018E091F9A4
:1029E0000120002A01DD012012E091F90120002AD6
:1029F00001DA05200CE091F90220002A01DD022015
:102A000006E091F90220002A01DA062000E0072002
:102A10007047000000BF4FF4A060FDF753FFFEF7C2
:102A2000E5FC9FED0F1ADFED0F0A9FED0F0A0F482F
:102A3000FDF77EFE9FED0E1ADFED0A0A9FED0D0AEF
:102A40000D48FDF775FE00200C490860002400BF0A
:102A5000FDF7A0FE0446002CFAD100BFFEE70000FF
:102A60000AD7233CA69B443B0AD7A33CE80000209E
:102A70008FC2F53C6F12833A0C0100200400002045
:102A800000B589B040F6330007900020ADF81A0079
:102A90000120ADF818000020ADF8200006A9134869
:102AA000FEF73EFB6020ADF804000120ADF8060003
:102AB0000020ADF8100001A90C48FEF75DFA0821CE
:102AC0000A48FEF797FA01A90848FEF79DFA08217F
:102AD0000648FEF7EBFA01210448FEF7B1F901219F
:102AE0000248FEF7BCF909B000BD00000004004038
:102AF00010B56420FEF79AFC00216B2000F04CF822
:102B00006420FEF793FC0121192000F045F808210C
:102B10001C2000F041F808211B2000F03DF8322075
:102B2000FEF78EFC10BD70B506460D461446FFF745
:102B3000FBFEFFF7D9FED220FFF7A2FEFFF70AFF48
:102B400000B125E03046FFF79BFEFFF703FF00B121
:102B50001EE0FFF7E9FEFFF7C7FED320FFF790FE68
:102B6000FFF7F8FE00B113E00CE0FFF765FE2870F8
:102B70006D1C012C02D1FFF745FE01E0FFF722FE9C
:102B8000601EC4B2002CF0D1FFF7CEFE002070BD55
:102B9000FFF7CAFE0120FAE770B505460C46FFF7BD
:102BA000C3FEFFF7A1FED220FFF76AFEFFF7D2FEB9
:102BB00000B111E02846FFF763FEFFF7CBFE00B13E
:102BC0000AE02046FFF75CFEFFF7C4FE00B103E019
:102BD000FFF7AAFE002070BDFFF7A6FE0120FAE76E
:102BE00070B50446002624F00104184890F824002B
:102BF00008B1002070BD1548807A10B94FF0FF3041
:102C0000F8E71248057C807A20401049087408468D
:102C1000007CA04202D04FF0FF3600E0002614B93D
:102C20000A48007D18B1012000F0A2FF02E0002058
:102C300000F09EFF3CB100F0ABFA20B103480574F0
:102C40004FF0FF30D6E73046D4E70000B000002058
:102C500001461148407A30B1012807D0022808D037
:102C600003280CD108E0022008700BE00420087053
:102C700008E00820087005E01020087002E04FF01E
:102C8000FF30704700BF0448C07C18B10878400688
:102C9000000E08700020F4E7B00000200146134841
:102CA000407A30B1012808D002280AD0032810D178
:102CB0000BE04FF4804008800EE04FF40050088095
:102CC0000AE04FF48050088006E04FF4006008806E
:102CD00002E04FF0FF30704700BF0448C07C10B1E5
:102CE0000888401008800020F5E70000B0000020B0
:102CF00001460248007C087000207047B0000020A8
:102D000001460F48007A30B1012807D0022809D0C7
:102D100003280FD10AE0FA2008800EE04FF4FA7081
:102D200008800AE04FF47A70088006E04FF4FA60F9
:102D3000088002E00020088000BF00BF002070472C
:102D4000B000002001461248007A30B1012809D0B5
:102D500002280CD0032814D10EE09FED0E0A81ED5D
:102D6000000A11E09FED0C0A81ED000A0CE09FEDD6
:102D70000B0A81ED000A07E09FED090A81ED000AC8
:102D800002E04FF0FF30704700BF0020FBE700007B
:102D9000B0000020000003430000834233330342AD
:102DA0003333834101461248C07A082817D2DFE83E
:102DB00000F01704070A0D101318BC20088013E058
:102DC0006220088010E02A2008800DE0142008808E
:102DD0000AE00A20088007E00520088004E000BF20
:102DE00000BF0020088000BF00BF00207047000027
:102DF000B00000200146064890F8240010B14FF0C2
:102E0000FF3070470248C08908800020F9E70000C1
:102E1000B00000201CB5044680208DF80000444A14
:102E20001268517D424A526810786B460122FDF7C4
:102E3000BFFD10B14FF0FF301CBD6420FEF7F6FA65
:102E400000208DF800003A4A1268517D384A5268D5
:102E500010786B460122FDF7ABFD10B14FF0FF304B
:102E6000EAE700213248C17448208DF80000304A5A
:102E70001268117A2E4A526810786B460122FDF7CB
:102E800097FD10B14FF0FF30D6E7FF21284881723F
:102E9000FF2027490872FF2125484172C1724FF671
:102EA000FF71C181FF21017481740121017380F8D8
:102EB0002210002180F82310417501751630016041
:102EC00041608160163880F8241080F82510C18494
:102ED0004FF4FA6000F01CFC10B14FF0FF30ABE78C
:102EE000022000F0E5FA10B14FF0FF30A4E72A20ED
:102EF00000F088FC10B14FF0FF309DE7322000F069
:102F0000C3FC10B14FF0FF3096E70020FFF768FEDA
:102F100010B14FF0FF308FE7002000F00BFB10B135
:102F20004FF0FF3088E7002000F0FCFC002083E732
:102F3000B00000202DE9F04385B005460E469046CE
:102F400099462B4890F8250020B14FF0FF3005B08E
:102F5000BDE8F08316B94FF0FF30F8E7002426E013
:102F6000281B102801DD102000E0281B87B2321931
:102F70003946204600F03EFD10B14FF0FF30E6E745
:102F80000120FEF753FA01AA3946204600F0C0F8A6
:102F900010B14FF0FF30DAE730193A4601A9FDF7DA
:102FA00087F910B16FF00100D1E7E01984B2AC42AB
:102FB000D6DB4FEA28208DF8000008F0FF008DF8DE
:102FC00001000B4A1268517F094A526810786B461B
:102FD0000222FDF7EDFC10B14FF0FF30B7E7012101
:102FE000034880F82510A0F826900020AFE70000E5
:102FF000B000002038B50446282C02DD4FF0FF3029
:1030000038BDDCB9002000F0C7FB00208DF80000BF
:1030100007208DF801003D4A1268517D3B4A5268F5
:1030200010786B460222FDF7C3FC10B14FF0FF3061
:10303000E6E70021354801750020E1E7012000F0B6
:10304000ABFB012C03D102208DF8000033E0022CF1
:1030500003D103208DF800002DE0052C03DC0420B3
:103060008DF8000027E00A2C03DC05208DF8000015
:1030700021E0142C03DC06208DF800001BE0282C36
:1030800003DC07208DF8000015E0502C03DC08203D
:103090008DF800000FE0A02C03DC09208DF8000063
:1030A00009E0B4F5A07F03DC0A208DF8000002E0FF
:1030B0000B208DF80000154A1268517A134A5268A5
:1030C00010786B460122FDF773FC10B14FF0FF3012
:1030D00096E720208DF800000C4A1268517D0B4ABB
:1030E000526810786B460122FDF762FC10B14FF078
:1030F000FF3085E708210548817200210173012115
:1031000001750020FFF76CFD002079E7B00000207A
:10311000F8B504460D46164616B94FF0FF30F8BD17
:103120001A48807A10B94FF0FF30F8E720128DF876
:103130000000E0B28DF801009DF801002844134919
:1031400049684989884202DD4FF0FF30E7E70F4ABE
:103150001268D17E0D4A526810786B460222FDF744
:1031600027FC10B14FF0FF30D9E7EAB2074B1B68DC
:10317000197E064B5B6818783346FDF7E0FB10B10B
:103180004FF0FF30CBE70020C9E70000B00000207F
:1031900008B57048807A10B94FF0FF3008BD0020A4
:1031A00000906C4A1268517C6A4A526810786B46EB
:1031B0000122FDF7FDFB10B14FF0FF30EEE7654A4D
:1031C00012685179634A526810786B460122FDF704
:1031D000EFFB10B14FF0FF30E0E75E4A1268117963
:1031E0005C4A526810786B460122FDF7E1FB10B192
:1031F0004FF0FF30D2E7574890F82400002853D012
:103200000C200090534A12681179524A5268107883
:103210006B460122FDF7CCFB10B14FF0FF30BDE74C
:103220003220FEF703F9C02000904A48807A00F06F
:10323000010020B19DF8000040F020000090454AB8
:1032400012681179434A526810786B460122FDF7E3
:10325000AFFB10B14FF0FF30A0E73E48407C10B10B
:103260000220009001E0002000903A4A1268517C50
:10327000384A526810786B460122FDF799FB10B16D
:103280004FF0FF308AE700200090324A12685179EF
:10329000304A526810786B460122FDF789FB0028FE
:1032A00055D04FF0FF3079E704200090294A12688A
:1032B0001179284A526810786B460122FDF778FB95
:1032C00010B14FF0FF3069E72248807C20B92148D7
:1032D000807A00F0010010B94020009001E06020E9
:1032E00000901C4A126811791A4A526810786B468D
:1032F0000122FDF75DFB10B14FF0FF304EE73220A9
:10330000FEF794F81348407C10B10120009001E0D2
:10331000002000900F4A1268517C0E4A52681078C3
:103320006B460122FDF744FB10B14FF0FF3035E74B
:10333000084A12685179074A52681078054B1033D1
:103340000122FDF735FB10B14FF0FF3026E70020DA
:1033500024E70000B00000202DE9F74F8CB088462C
:10336000144602200B900CB100BF00BF4F4890F8EC
:10337000240020B1002000F083F9012700E000279D
:1033800002A8FFF7BDFC04A8FFF762FC6846FFF740
:1033900009FD01A8FFF72EFD444890F80AB003A8E4
:1033A000FFF7A6FC0CB100BF00BF002508E02346D4
:1033B000002241460C98FEF7D1FD00B902E06D1CD9
:1033C000022DF4DB00BF022D04D10CB100BF00BF01
:1033D000002639E00CB100BF00BF002508E02346FD
:1033E000012205A908A8FEF7B9FD00B902E06D1C8D
:1033F000022DF4DB00BF022D04D10CB100BF00BFD1
:10340000002621E0224605A94046FDF7CDFE00F04A
:10341000FF090CB100BF00BF224608A90C98FFF7B6
:10342000C7F800F0FF0A0CB100BF00BF0026BAF1D8
:10343000000F01D146F00106B9F1000F01D146F0AD
:10344000020646F0040600BF0CB100BF00BFFF201B
:1034500016490872FF2115484172C1724FF6FF717B
:10346000C181FF218172017401210173BDF808003F
:1034700000F04EF99DF8100000F01AF8BDF80000B9
:1034800000F0C0F9BDF8040000F0FEF9584600F065
:1034900049FA9DF80C00FFF7A3FB17B1012000F0DB
:1034A000EFF830460FB0BDE8F08F0000B00000200C
:1034B00038B504461E48807A10B94FF0FF3038BD49
:1034C000022C06D0042C07D0082C08D0102C0CD1CC
:1034D00008E0002000900BE00820009008E0102099
:1034E000009005E01820009002E04FF0FF30E6E782
:1034F00000BF0F48407A9DF80010B0EBE10F01D1FA
:103500000020DCE70A4A1268D179094A526810782B
:103510006B460122FDF74CFA10B14FF0FF30CEE7B9
:103520009DF80000C110024841720020C7E700006A
:10353000B000002038B504465048807CA04201D13C
:10354000002038BD002C46D04C4A126811794B4AF5
:10355000526810786B460122FDF7F1F910B14FF077
:10356000FF30EEE79DF8000020F020000090434A75
:1035700012681179414A526810786B460122FDF7B2
:1035800017FA10B14FF0FF30DBE70320FDF74EFFD5
:1035900002200090394890F8220020B19DF80000E8
:1035A00040F080000090354890F8230020B19DF84D
:1035B000000040F030000090304A1268D17D2F4A60
:1035C000526810786B460122FDF7F2F9002851D0BD
:1035D0004FF0FF30B5E7294A12681179274A52683F
:1035E00010786B460122FDF7AAF910B14FF0FF30B9
:1035F000A7E72248807A00F0010028B19DF800007A
:1036000040F02000009004E09DF8000020F0200031
:1036100000901A4A12681179184A526810786B465D
:103620000122FDF7C5F910B14FF0FF3089E7032003
:10363000FDF7FCFE114890F8220010B180200090A8
:1036400001E0002000900D4890F8230020B19DF883
:10365000000040F030000090084A1268D17D074A0F
:10366000526810786B460122FDF7A2F910B14FF0B5
:10367000FF3066E701488474002062E7B000002054
:1036800038B50446214890F82400A04201D100201A
:1036900038BD24B31D4890F8250010B94FF0FF3015
:1036A000F6E7002000F064FA0020FFF743FF174917
:1036B000C88C00F0E9F800200090144949680878A7
:1036C0006B4601222321FDF773F901210F4880F891
:1036D0002410012000F04CFAFFF75AFD13E00020FF
:1036E00000F046FA0948007C0090084949680878CB
:1036F0006B4601222321FDF75BF90021034880F886
:103700002410FFF745FD0020C2E70000B0000020B4
:1037100038B504461F48807A10B94FF0FF3038BDE5
:10372000FA2C09D0B4F5FA7F09D0B4F57A7F09D024
:10373000B4F5FA6F0CD108E0002000900BE00820EF
:10374000009008E01020009005E01820009002E0B2
:103750004FF0FF30E3E700BF0E48007A9DF80010FD
:10376000B0EBE10F01D10020D9E70A4A1268917944
:10377000084A526810786B460122FDF719F910B11A
:103780004FF0FF30CBE79DF80000C01001490872F0
:103790000020C4E7B000002038B50446184890F86F
:1037A0002300A04201D1002038BD14B13020009088
:1037B00001E0002000901248807C20B19DF80000BC
:1037C00040F0020000900E4890F8220020B19DF8D1
:1037D000000040F080000090094A1268D17D084A3C
:1037E000526810786B460122FDF7E2F810B14FF0F5
:1037F000FF30D9E7024880F823400020D4E70000DA
:10380000B000002038B504461E48807A10B94FF049
:10381000FF3038BDBC2C02DB0120009015E0622C8B
:1038200002DB0220009010E02A2C02DB0320009033
:103830000BE0142C02DB0420009006E00A2C02DBD3
:103840000520009001E0062000900E48C07A9DF807
:103850000010884201D10020DBE70A4A1268917803
:10386000084A526810786B460122FDF7A1F810B1A2
:103870004FF0FF30CDE79DF800100248C1720020E4
:10388000C7E70000B000002038B504462448807A1D
:1038900010B94FF0FF3038BD214890F8240010B126
:1038A0004FF0FF30F7E71E48007D50B134B1282CAF
:1038B00004DC2046FFF79EFB0020ECE70020FFF72A
:1038C00099FB042C01DA042404E0B4F57A7F01DDCD
:1038D0004FF47A744FF47A7090FBF4F0401EC0B24B
:1038E00000900F4A126851780D4A526810786B4662
:1038F0000122FDF75DF810B14FF0FF30CBE79DF8E6
:103900000000401C4FF47A7191FBF0F081B2044842
:10391000C1810146C9894810FFF774FF0020BAE74A
:10392000B000002038B5044604F0700010B101204A
:10393000009005E014B10020009001E040200090CC
:103940002B4A1268517D2A4A526810786B46012230
:10395000FDF72EF820B1002125488172481E38BDA0
:103960009DF8000020F040012148017300200090E4
:1039700004F0400020B99DF8000040F004000090E1
:1039800004F0200020B99DF8000040F002000090F3
:1039900004F0100020B99DF8000040F001000090F4
:1039A00004F0080020B99DF8000040F038000090B5
:1039B0000F4A1268917D0E4A526810786B460122B8
:1039C000FCF7F6FF20B1002109488172481EC6E7C6
:1039D00024B1082C02D00020FFF7DEFE04488472D8
:1039E000002101753220FDF721FD0020B7E700001E
:1039F000B0000020F8B504460D46164616B94FF043
:103A0000FF30F8BD1A48807A10B94FF0FF30F8E760
:103A100020128DF80000E0B28DF801009DF8010041
:103A20002844134949684989884202DD4FF0FF3034
:103A3000E7E70F4A1268D17E0D4A526810786B464C
:103A40000222FCF7B5FF10B14FF0FF30D9E7EAB220
:103A5000074B1B68197E064B5B6818783346FCF7EA
:103A6000A7FF10B14FF0FF30CBE70020C9E70000FF
:103A7000B000002010B501212020FCF73FFF0121FC
:103A80001020FCF73BFF01210220FCF737FF01214A
:103A90000846FCF743FF01210820FCF72FFF012116
:103AA0000846FCF71BFF01210220FCF717FF01214C
:103AB0000420FCF713FF01211020FCF70FFF10BDBD
:103AC0001CB5002228492948FFF746FC0446072C6C
:103AD00045D101A8FFF736F9244890ED000AB8EE69
:103AE000C00ADDED010A20EE200ABDEEC00A80ED1D
:103AF000000A90ED010AB8EEC00ADDED010A20EEE1
:103B0000200ABDEEC00A80ED010A90ED020AB8EE6F
:103B1000C00ADDED010A20EE200ABDEEC00A80EDEC
:103B2000020AFDF7EBFE6846FFF7B8F80E4800689A
:103B3000BDF8001048430C49086008464068BDF8CD
:103B4000001048430849486008468068BDF80010E6
:103B50004843054988600846FDF7FEFD02E04FF046
:103B6000FF301CBD0020FCE7700100206401002034
:103B700038B50446214890F82400C0B114B10220A1
:103B8000009001E0002000901C4A1268517C1B4A02
:103B9000526810786B460122FCF70AFF10B14FF013
:103BA000FF3038BD9DF800101448417423E01348DD
:103BB000807A10B94FF0FF30F3E724B10F48407C12
:103BC00008B10020EDE714B10120009001E00020D1
:103BD00000900A4A1268517C084A526810786B4675
:103BE0000122FCF7E5FE10B14FF0FF30D9E79DF858
:103BF0000010024841740020D3E70000B00000200C
:103C00001FB50720ADF804000020ADF8060009201C
:103C100002900020ADF80C0001A90E48FDF780FAD3
:103C2000012211460B48FDF79EF901210948FDF7D5
:103C300016F936208DF8000001208DF801000320D0
:103C40008DF8020001208DF803006846FCF7FEFDA8
:103C50001FBD0000001000401FB55320ADF8040048
:103C60000020ADF80600092002900020ADF80C00FD
:103C700001A90E48FDF754FA012211460B48FDF741
:103C800072F901210948FDF7EAF837208DF80000A4
:103C900001208DF8010003208DF8020001208DF82D
:103CA00003006846FCF7D2FD1FBD00000014004071
:103CB0004FF04070E1EE100A7047000075191A0CC1
:103CC0006A231B1C1D1E1F207274433B4138393A66
:103CD000696B6C376F77246D6E706900000480002B
:103CE0004101000000010000410000000020000030
:103CF00001020000C800C8000000A041000070429E
:103D00000000003F6666663ECDCC2C3F0000003FC1
:103D10000000003F0A0000003C0A560A700A8B0AA5
:103D2000A60AC10ADD0AF80A150B310B4E0B6B0B04
:103D3000880BA50BC30BE10B000C1E0C3D0C5D0C9E
:103D40007C0C9C0CBD0CDD0CFE0C1F0D410D630D9D
:103D5000850DA80DCB0DEE0D120E360E5A0E7F0EF0
:103D6000A40ECA0EEF0E160F3C0F630F8B0FB30F8E
:103D7000DB0F03102C1056108010AA10D410001165
:103D80002B1157118311B011DE110B123912681269
:103D90009712C712F712271359138A13BC13EF1384
:103DA000221455148914BE14F31429155F159515A2
:103DB000CD1504163D167616AF16E91624175F17B3
:103DC0009B17D817151852189118CF180F194F199B
:103DD0009019D119131A561A9A1ADE1A221B681B47
:103DE000AE1BF51B3D1C851CCE1C181D621DAD1D98
:103DF000F91D461E941EE21E311F811FD11F232074
:103E00007520C8201C217121C7211D227422CD22BA
:103E100026238023DA2336249324F1244F25AF254B
:103E20000F267126D32636279B2700286728CE2801
:103E30003629A0290B2A762AE32A512BC02B302CB5
:103E4000A12C132D862DFB2D712EE82E602FD92F3E
:103E50005330CF304C31CA314A32CA324C33D0336E
:103E60005434DA346235EA35743600378D371B380E
:103E7000AA383C39CE39623AF83A8F3B273CC13CEC
:103E80005D3DFA3D983E383FDA3F7E402341CA41CE
:103E900072421C43C84376442545D64589463D4772
:103EA000F447AC486649224ADF4A9F4B614C244D97
:103EB000EA4DB14E7B4F46501451E351B5528953F0
:103EC0005E5436551156ED56CB57AC588F59745A2F
:103ED0005C5B465C325D215E125F0560FB60F361F6
:103EE000EE62EB63EB64ED65F266FA670469116AF2
:103EF000206B336C486D5F6E7A6F9770B871DB72B0
:103F000001742A7556768577B778EC79247B5F7CC7
:103F10009D7DDF7E24806C81000070000000002405
:103F2000000000020003000000650054FFEF0000E5
:103F3000FA80000B12820001030C30C30E8C8CE956
:103F400014D5400213710F8E3883F8833000F88344
:103F5000258EF8833000F883FFFFFFFF0FFEA9D600
:103F6000240004001A8279A10000003CFFFF000039
:103F70000010000038836FA2003E033040000000B4
:103F800002CAE3093E80000020000000000000009B
:103F90004000000060000000000C0000000C186EE3
:103FA000000006920A16C0DFFFFF0256FD8CD37791
:103FB000FFE1C496E0C5BEAA00000000FFFF0B2B86
:103FC00000001657000003594000000000001DFAD1
:103FD00000026C1D000000003FFFDFEB003EB3B6A7
:103FE000000D227800002F3C00000000001942B5AF
:103FF000000039A20000B365D90E9FC91DCF4C3413
:1040000030000000500000003BB67AE80064000079
:1040100000C8000000000000100000001000FA922C
:104020001000225E000D229F0001000000320000FF
:10403000FF46000063D400001000000004D600001A
:1040400004CC000004CC000000001072000000400E
:10405000000000000000000000060002000500074C
:1040600000000000006400000000000000000005E7
:1040700000050064002000000000000000000000B7
:10408000000040000000030000000032F89800002B
:10409000FF650000830F0000FF9BFC000000000094
:1040A0000000000000000000000000000000000010
:1040B0000000000000000000000000000000000000
:1040C000000000000000100040000000000000069A
:1040D0000000B26A000200000001FB8300680000DB
:1040E00000D9FC007CF1FF830000000000650000A7
:1040F000006403E8006400280000002500000000C0
:1041000016A000000000100000001000002F0000AA
:10411000000001F40000100000280000FFFF4581AE
:10412000FFFFFA72000000000000000000440005DC
:104130000005BAC6004778A2000000010000000098
:1041400000000600000000140000254D002F706DD7
:10415000000005AE000C02D00000000000000000CE
:104160000000000000000000001B00000000000034
:1041700000000000000000000064000000080000D3
:10418000000000000000000000000000000000002F
:10419000000000000000000000000000000000001F
:1041A000000000000000000000000000000000000F
:1041B00000000000000000000000000000000000FF
:1041C00000000000000000000000000000000000EF
:1041D0000000000000000000001B000000000000C4
:1041E00000000000000E000E00000AC700040000DE
:1041F00000000032FFFFFF9C00000B2B00000002BC
:104200000000000100000064FFE500000000000065
:10421000000000000000000000000001000000009D
:10422000000100000000000000018000000180008B
:1042300000018000002426D30000000000000000E0
:10424000000600100096003C000000000000000086
:1042500000000000000000000C0A4E68CDCF770976
:1042600050166759C619CE820000000000000000F9
:10427000000000000000000000000000000000003E
:1042800017D78400030000000000000000000000B9
:10429000C7938F9D1E1B1C1900000000000000002A
:1042A000000000000000000000000000000000000E
:1042B0000203188500004000000000030000000316
:1042C00000000000000000004000000000000000AE
:1042D00000000000000000000000000000000000DE
:1042E00000000000000000000000000000000000CE
:1042F000000000000000000000000000677DDF7E7D
:1043000072902E554CF6E688000000000000000078
:104310000000000000000000D8DCB4B8B0D8B9AB91
:10432000F3F8FAB3B7BB8E9EAEF132F51BF1B4B819
:10433000B08097F1A9DFDFDFAADFDFDFF2AAC5CD0A
:10434000C7A90CC92C97F1A989264666B28999A9F3
:104350002D557DB0B08AA896365676F1BAA3B4B280
:1043600080C0B8A89711B28398BAA3F0240844106B
:104370006418B2B9B49883F1A329557DBAB5B1A335
:104380008393F0002850F5B2B6AA839328547CF1A9
:10439000B9A3829361BAA2DADEDFDB819AB9AEF506
:1043A000606870F1DABAA2DFD9BAA2FAB9A3829230
:1043B000DB31BAA2D9BAA2F8DF85A4D0C1BBAD83E4
:1043C000C2C5C7B8A2DFDFDFBAA0DFDFDFD8D8F110
:1043D000B8AAB38DB4980D355DB2B6BAAF8C961944
:1043E0008F9FA70E161EB49AB8AA872C547CBAA425
:1043F000B08AB691325676B28494A4C808CDD8B8A3
:10440000B4B0F19982A82D557D98A80E161EA22C45
:10441000547C92A4F02C5078F184A898C4CDFCD898
:104420000DDBA8FC2DF3D9BAA6F8DABAA6DED8BA05
:10443000B2B68696A6D0F3C841DAA6C8F8D8B0B40A
:10444000B882A892F52C548898F135D9F418D8F18F
:10445000A2D0F8F9A884D9C7DFF8F883C5DADF69F4
:10446000DF83C1D8F40114F1A8824EA884F311D1DE
:1044700082F5D992289788F109F41C1CD884A8F3F6
:10448000C0F9D1D99782F129F40DD8F3F9F9D1D92E
:1044900082F4C203D8DEDF1AD8F1A2FAF9A8849810
:1044A000D9C7DFF8F8F883C7DADF69DFF883C3D844
:1044B000F40114F198A8822EA884F311D182F5D9C1
:1044C00092509788F109F41CD884A8F3C0F8F9D168
:1044D000D99782F149F40DD8F3F9F9D1D982F4C40E
:1044E00003D8DEDFD8F1AD8898CCA809F9D982923B
:1044F000A8F57CF1883ACF944A6E98DB6931DAAD41
:10450000F2DEF9D88795A8F221D1DAA5F9F417D906
:10451000F1AE8ED0C0C3AE82C684C3A88595C8A5AF
:1045200088F2C0F1F4010EF18E9EA8C63E56F554F5
:10453000F18872F40115F19845856EF58E9E048818
:10454000F142985A8E9E068869F4011CF1981E115A
:1045500008D0F504F11E970202983625DBF9D985BB
:10456000A5F3C1DA85A5F3DFD88595A8F309DAA507
:10457000FAD88292A8F578F1881A849F2688982123
:10458000DAF41DF3D8879F39D1AFD9DFDFFBF9F417
:104590000CF3D8FAD0F8DAF9F9D0DFD9F9D8F40B5E
:1045A000D8F3879F39D1AFD9DFDFF41DF3D8FAFCF8
:1045B000A869F9F9AFD0DADEFAD9F88F9FA8F1CC63
:1045C000F398DB45D9AFDFD0F8D8F18F9FA8CAF3B5
:1045D0008809DAAF8FCBF8D8F2AD978D0CD9A5DF6B
:1045E000F9BAA6F3FAF412F2D8950DD1D9BAA6F316
:1045F000FADAA5F2C1BAA6F3DFD8F1BAB2B6869656
:10460000A6D0CAF349DAA6CBF8D8B0B4B8D8AD84EE
:10461000F2C0DFF18FCBC3A8B2B68696C8C1CBC3B8
:10462000F3B0B48898A821DB718D9D71859521D94F
:10463000ADF2FAD88597A828D9F408D8F28D29DAEE
:10464000F405D9F285A4C2F2D8A88D9401D1D9F489
:1046500011F2D88721D8F40AD8F28498A8C801D1D9
:10466000D9F411D8F3A4C8BBAFD0F2DEF8F8F8F84B
:10467000F8F8F8F8D8F1B8F6B5B9B08A95A3DE3CE9
:10468000A3D9F8D85CA3D9F8D87CA3D9F8D8F8F97D
:10469000D1A5D9DFDAFAD8B18530F7D9DED8F8302C
:1046A000ADDADED8F2B48C99A32D557DA083DFDF7F
:1046B000DFB591A0F629D9FBD8A0FC29D9FAD8A05A
:1046C000D051D9F8D8FC51D9F9D879D9FBD8A0D094
:1046D000FC79D9FAD8A1F9F9F9F9F9A0DADFDFDF25
:1046E000D8A1F8F8F8F8F8ACDEF8ADDE8393AC2C7E
:1046F000547CF1A8DFDFDFF69D2CDAA0DFD9FADBEE
:104700002DF8D8A850DAA0D0DED9D0F8F8F8DB55CB
:10471000F8D8A878DAA0D0DFD9D0FAF8F8F8F8DB22
:104720007DF8D89CA88CF530DB38D9D0DEDFA0D05E
:10473000DEDFD8A848DB58D9DFD0DEA0DFD0DED856
:10474000A868DB70D9DFDFA0DFDFD8F1A888902C64
:10475000547C98A8D05C38D1DAF2AE8CDFF9D8B0AE
:1047600087A8C1C1B188A8C6F9F9DA36D8A8F9DA9C
:1047700036D8A8F9DA36D8A8F9DA36D8A8F9DA3668
:10478000D8F78D9DADF818DAF2AEDFD8F7ADFA3074
:10479000D9A4DEF9D8F2AEDEFAF983A7D9C3C5C72A
:1047A000F1889BA77AADF7DEDFA4F8849408A79779
:1047B000F300AEF29819A488C6A39488F632DFF20B
:1047C0008393DB09D9F2AADFD8D8AEF8F9D1DAF3AE
:1047D000A4DEA7F1889B7AD8F38494AE19F9DAAAFB
:1047E000F1DFD8A881C0C3C5C7A39283F628ADDE88
:1047F000D9F8D8A350ADD9F8D8A378ADD9F8D8F85E
:10480000F9D1A1DADEC3C5C7D8A18194F818F2B0F6
:1048100089ACC3C5C7F1D8B8B4B09786A8319B0698
:104820009907AB9728889BF00C201440B0B4B8F0DF
:10483000A88A9A285078B79BA8295179247059449E
:104840006938644831F1BBAB88002C547CF0B38BE1
:10485000B8A804285078F1B088B49726A85998BB16
:10486000ABB38B02264666B0B8F08A9CA829517972
:104870008B2951798A2470598B2058718A44693860
:104880008B3940688A6448318B30496088F1AC00CC
:104890002C547CF08CA804285078F1889726A859CD
:1048A00098AC8C02264666F0899CA8295179247020
:1048B00059446938644831A98809205970AB1138C6
:1048C0004069A8193148608CA83C415C207C00F10B
:1048D00087981986A86E767EA999882D557DD8B1BE
:1048E000B5B9A3DFDFDFAED0DFAAD0DEF2ABF8F9D7
:1048F000D9B087C4AAF1DFDFBBAFDFDFB9D8B1F130
:10490000A3978E60DFB084F2C8F8F9D9DED893851A
:10491000F14AB183A308B5839A0810B79F10D8F164
:10492000B0BAAEB08AC2B2B68E9EF1FBD9F41DD831
:10493000F9D90CF1D8F8F8AD61D9AEFBD8F40CF187
:10494000D8F8F8AD19D9AEFBDFD8F416F1D8F8AD28
:104950008D61D9F4F4ACF59C9C8DDF2BBAB6AEFA20
:10496000F8F40BD8F1AED0F8AD51DAAEFAF8F1D8D0
:10497000B9B1B6A3839C08B9B1839AB5AAC0FD307A
:1049800083B79F10B58B93F20202D1ABDADED8F178
:10499000B080BAABC0C3B284C1C3D8B1B9F38BA3E2
:1049A00091B609B4D9ABDEB0879CB9A3DDF1B38B66
:1049B0008B8B8B8BB087A3A3A3A3B28BB69BF2A3E5
:1049C000A3A3A3A3A3A3A3A3A3F1B087B59AA3F31F
:1049D0009BA3A3DCBAACDFB9A3A3A3A3A3A3A3A304
:1049E000A3A3A3A3A3A3A3A3D8D8D8BBB3B7F1AA67
:1049F000F9DAFFD9809AAA28B48098A720B79787B8
:104A0000A86688F07951F1902C870CA78197629362
:104A1000F071716085940129517990A5F1284C6C51
:104A2000870C95188578A38390284C6C886CD8F3F4
:104A3000A28200F210A8921980A2F2D926D8F18899
:104A4000A84DD948D896A83980D93CD89580A8399E
:104A5000A68698D92CDA87A72CD8A8899519A98079
:104A6000D938D8A88939A980DA3CD8A82EA8399095
:104A7000D90CD8A8953198D90CD8A809D9FFD80154
:104A8000DAFFD89539A9DA26FFD890A80D8999A818
:104A900010809821DA2ED88999A83180DA2ED8A8EA
:104AA00086963180DA2ED8A8873180DA2ED8A8826F
:104AB00092F34180F1D92ED8A882F31980F1D92E32
:104AC000D882ACF3C0A28022F1A62EA72EA92298EC
:104AD000A829DAACDEFFD8A2F22AF1A92E8292A888
:104AE000F23180A696F1D900AC8C9C0C30ACDED0B3
:104AF000DEFFD88C9CACD010ACDE8092A2F24C824F
:104B0000A8F1CAF235F19688A6D900D8F1FF0000C5
:104B1000304B000800000020E8000000C40100083D
:104B2000184C0008E8000020F8060000E00100082A
:104B30000000010000000000000000000000000074
:104B40000000000000000000000000000000000065
:104B50000000000000000000000000000000000055
:104B60000000000000000000000000000000000045
:104B70000000000000000000000000000000000035
:104B80000000000000000000000000000000000025
:104B90000000000000000000000000000000000015
:104BA0000000000000000000000000000000000005
:104BB00000000000000000000000000000000000F5
:104BC00000000000000000000000000000000000E5
:104BD00000000000000000000000000000000000D5
:104BE000BC3C0008DA3C00080000000000000000A7
:104BF00000000000000000000000000000000000B5
:104C00000000000000000000E83C0008FF00000079
:084C1000FF000000010000009C
:040000050800018965
:00000001FF
